{
  "_format": "hh-sol-artifact-1",
  "contractName": "CarbonEmission",
  "sourceName": "contracts/CarbonEmission.sol",
  "abi": [
    {
      "inputs": [],
      "stateMutability": "nonpayable",
      "type": "constructor"
    },
    {
      "anonymous": false,
      "inputs": [
        {
          "indexed": true,
          "internalType": "bytes32",
          "name": "id",
          "type": "bytes32"
        }
      ],
      "name": "ChainlinkCancelled",
      "type": "event"
    },
    {
      "anonymous": false,
      "inputs": [
        {
          "indexed": true,
          "internalType": "bytes32",
          "name": "id",
          "type": "bytes32"
        }
      ],
      "name": "ChainlinkFulfilled",
      "type": "event"
    },
    {
      "anonymous": false,
      "inputs": [
        {
          "indexed": true,
          "internalType": "bytes32",
          "name": "id",
          "type": "bytes32"
        }
      ],
      "name": "ChainlinkRequested",
      "type": "event"
    },
    {
      "anonymous": false,
      "inputs": [
        {
          "indexed": true,
          "internalType": "bytes32",
          "name": "requestId",
          "type": "bytes32"
        },
        {
          "indexed": false,
          "internalType": "uint256",
          "name": "emission",
          "type": "uint256"
        }
      ],
      "name": "EmissionReceived",
      "type": "event"
    },
    {
      "anonymous": false,
      "inputs": [
        {
          "indexed": true,
          "internalType": "bytes32",
          "name": "requestId",
          "type": "bytes32"
        },
        {
          "indexed": false,
          "internalType": "string",
          "name": "departure",
          "type": "string"
        },
        {
          "indexed": false,
          "internalType": "string",
          "name": "destination",
          "type": "string"
        },
        {
          "indexed": false,
          "internalType": "uint256",
          "name": "passengers",
          "type": "uint256"
        },
        {
          "indexed": false,
          "internalType": "string",
          "name": "tripType",
          "type": "string"
        }
      ],
      "name": "EmissionRequested",
      "type": "event"
    },
    {
      "anonymous": false,
      "inputs": [
        {
          "indexed": true,
          "internalType": "address",
          "name": "from",
          "type": "address"
        },
        {
          "indexed": true,
          "internalType": "address",
          "name": "to",
          "type": "address"
        }
      ],
      "name": "OwnershipTransferRequested",
      "type": "event"
    },
    {
      "anonymous": false,
      "inputs": [
        {
          "indexed": true,
          "internalType": "address",
          "name": "from",
          "type": "address"
        },
        {
          "indexed": true,
          "internalType": "address",
          "name": "to",
          "type": "address"
        }
      ],
      "name": "OwnershipTransferred",
      "type": "event"
    },
    {
      "inputs": [],
      "name": "acceptOwnership",
      "outputs": [],
      "stateMutability": "nonpayable",
      "type": "function"
    },
    {
      "inputs": [
        {
          "internalType": "bytes32",
          "name": "_requestId",
          "type": "bytes32"
        },
        {
          "internalType": "uint256",
          "name": "_emission",
          "type": "uint256"
        }
      ],
      "name": "fulfill",
      "outputs": [],
      "stateMutability": "nonpayable",
      "type": "function"
    },
    {
      "inputs": [
        {
          "internalType": "address",
          "name": "_user",
          "type": "address"
        }
      ],
      "name": "getLatestFlight",
      "outputs": [
        {
          "components": [
            {
              "internalType": "string",
              "name": "departure",
              "type": "string"
            },
            {
              "internalType": "string",
              "name": "destination",
              "type": "string"
            },
            {
              "internalType": "uint256",
              "name": "passengers",
              "type": "uint256"
            },
            {
              "internalType": "string",
              "name": "tripType",
              "type": "string"
            },
            {
              "internalType": "uint256",
              "name": "emission",
              "type": "uint256"
            },
            {
              "internalType": "uint256",
              "name": "timestamp",
              "type": "uint256"
            },
            {
              "internalType": "bool",
              "name": "fulfilled",
              "type": "bool"
            }
          ],
          "internalType": "struct CarbonEmission.FlightEmission",
          "name": "",
          "type": "tuple"
        }
      ],
      "stateMutability": "view",
      "type": "function"
    },
    {
      "inputs": [
        {
          "internalType": "address",
          "name": "_user",
          "type": "address"
        }
      ],
      "name": "getUserFlights",
      "outputs": [
        {
          "components": [
            {
              "internalType": "string",
              "name": "departure",
              "type": "string"
            },
            {
              "internalType": "string",
              "name": "destination",
              "type": "string"
            },
            {
              "internalType": "uint256",
              "name": "passengers",
              "type": "uint256"
            },
            {
              "internalType": "string",
              "name": "tripType",
              "type": "string"
            },
            {
              "internalType": "uint256",
              "name": "emission",
              "type": "uint256"
            },
            {
              "internalType": "uint256",
              "name": "timestamp",
              "type": "uint256"
            },
            {
              "internalType": "bool",
              "name": "fulfilled",
              "type": "bool"
            }
          ],
          "internalType": "struct CarbonEmission.FlightEmission[]",
          "name": "",
          "type": "tuple[]"
        }
      ],
      "stateMutability": "view",
      "type": "function"
    },
    {
      "inputs": [],
      "name": "owner",
      "outputs": [
        {
          "internalType": "address",
          "name": "",
          "type": "address"
        }
      ],
      "stateMutability": "view",
      "type": "function"
    },
    {
      "inputs": [
        {
          "internalType": "string",
          "name": "_departure",
          "type": "string"
        },
        {
          "internalType": "string",
          "name": "_destination",
          "type": "string"
        },
        {
          "internalType": "uint256",
          "name": "_passengers",
          "type": "uint256"
        },
        {
          "internalType": "uint256",
          "name": "_emissionRate",
          "type": "uint256"
        },
        {
          "internalType": "string",
          "name": "_tripType",
          "type": "string"
        }
      ],
      "name": "requestEmissionData",
      "outputs": [
        {
          "internalType": "bytes32",
          "name": "requestId",
          "type": "bytes32"
        }
      ],
      "stateMutability": "nonpayable",
      "type": "function"
    },
    {
      "inputs": [
        {
          "internalType": "address",
          "name": "to",
          "type": "address"
        }
      ],
      "name": "transferOwnership",
      "outputs": [],
      "stateMutability": "nonpayable",
      "type": "function"
    },
    {
      "inputs": [
        {
          "internalType": "address",
          "name": "",
          "type": "address"
        },
        {
          "internalType": "uint256",
          "name": "",
          "type": "uint256"
        }
      ],
      "name": "userFlights",
      "outputs": [
        {
          "internalType": "string",
          "name": "departure",
          "type": "string"
        },
        {
          "internalType": "string",
          "name": "destination",
          "type": "string"
        },
        {
          "internalType": "uint256",
          "name": "passengers",
          "type": "uint256"
        },
        {
          "internalType": "string",
          "name": "tripType",
          "type": "string"
        },
        {
          "internalType": "uint256",
          "name": "emission",
          "type": "uint256"
        },
        {
          "internalType": "uint256",
          "name": "timestamp",
          "type": "uint256"
        },
        {
          "internalType": "bool",
          "name": "fulfilled",
          "type": "bool"
        }
      ],
      "stateMutability": "view",
      "type": "function"
    },
    {
      "inputs": [],
      "name": "withdrawLink",
      "outputs": [],
      "stateMutability": "nonpayable",
      "type": "function"
    }
  ],
  "bytecode": "0x6080604052600160045534801561001557600080fd5b50338060008073ffffffffffffffffffffffffffffffffffffffff168273ffffffffffffffffffffffffffffffffffffffff1603610088576040517f08c379a000000000000000000000000000000000000000000000000000000000815260040161007f906103bc565b60405180910390fd5b81600660006101000a81548173ffffffffffffffffffffffffffffffffffffffff021916908373ffffffffffffffffffffffffffffffffffffffff160217905550600073ffffffffffffffffffffffffffffffffffffffff168173ffffffffffffffffffffffffffffffffffffffff161461010d5761010c816101a960201b60201c565b5b50505061013373779877a7b0d9e8603169ddbd7836e478b46247896102d760201b60201c565b610156736090149792daaee9d1d568c9f9a6f6b46aa29efd61031b60201b60201c565b7f6361393833363663633733313439353762386330313263373266303561656562600881905550600a670de0b6b3a764000060016101949190610415565b61019e9190610486565b600981905550610523565b3373ffffffffffffffffffffffffffffffffffffffff168173ffffffffffffffffffffffffffffffffffffffff1603610217576040517f08c379a000000000000000000000000000000000000000000000000000000000815260040161020e90610503565b60405180910390fd5b80600760006101000a81548173ffffffffffffffffffffffffffffffffffffffff021916908373ffffffffffffffffffffffffffffffffffffffff1602179055508073ffffffffffffffffffffffffffffffffffffffff16600660009054906101000a900473ffffffffffffffffffffffffffffffffffffffff1673ffffffffffffffffffffffffffffffffffffffff167fed8889f560326eb138920d842192f0eb3dd22b4f139c87a2c57538e05bae127860405160405180910390a350565b80600260006101000a81548173ffffffffffffffffffffffffffffffffffffffff021916908373ffffffffffffffffffffffffffffffffffffffff16021790555050565b80600360006101000a81548173ffffffffffffffffffffffffffffffffffffffff021916908373ffffffffffffffffffffffffffffffffffffffff16021790555050565b600082825260208201905092915050565b7f43616e6e6f7420736574206f776e657220746f207a65726f0000000000000000600082015250565b60006103a660188361035f565b91506103b182610370565b602082019050919050565b600060208201905081810360008301526103d581610399565b9050919050565b6000819050919050565b7f4e487b7100000000000000000000000000000000000000000000000000000000600052601160045260246000fd5b6000610420826103dc565b915061042b836103dc565b9250828202610439816103dc565b915082820484148315176104505761044f6103e6565b5b5092915050565b7f4e487b7100000000000000000000000000000000000000000000000000000000600052601260045260246000fd5b6000610491826103dc565b915061049c836103dc565b9250826104ac576104ab610457565b5b828204905092915050565b7f43616e6e6f74207472616e7366657220746f2073656c66000000000000000000600082015250565b60006104ed60178361035f565b91506104f8826104b7565b602082019050919050565b6000602082019050818103600083015261051c816104e0565b9050919050565b61378a806105326000396000f3fe608060405234801561001057600080fd5b50600436106100935760003560e01c806379ba50971161006657806379ba50971461014a5780637fbd16f7146101545780638da5cb5b146101845780638dc654a2146101a2578063f2fde38b146101ac57610093565b8063378af476146100985780634357855e146100ce57806361aff2f0146100ea57806376ff309e1461011a575b600080fd5b6100b260048036038101906100ad9190612120565b6101c8565b6040516100c5979695949392919061221a565b60405180910390f35b6100e860048036038101906100e391906122d4565b6103cc565b005b61010460048036038101906100ff9190612314565b610642565b6040516101119190612453565b60405180910390f35b610134600480360381019061012f9190612314565b61097d565b60405161014191906125e1565b60405180910390f35b610152610d05565b005b61016e60048036038101906101699190612738565b610e9c565b60405161017b9190612816565b60405180910390f35b61018c6111e5565b6040516101999190612840565b60405180910390f35b6101aa61120f565b005b6101c660048036038101906101c19190612314565b61135c565b005b600a60205281600052604060002081815481106101e457600080fd5b9060005260206000209060070201600091509150508060000180546102089061288a565b80601f01602080910402602001604051908101604052809291908181526020018280546102349061288a565b80156102815780601f1061025657610100808354040283529160200191610281565b820191906000526020600020905b81548152906001019060200180831161026457829003601f168201915b5050505050908060010180546102969061288a565b80601f01602080910402602001604051908101604052809291908181526020018280546102c29061288a565b801561030f5780601f106102e45761010080835404028352916020019161030f565b820191906000526020600020905b8154815290600101906020018083116102f257829003601f168201915b50505050509080600201549080600301805461032a9061288a565b80601f01602080910402602001604051908101604052809291908181526020018280546103569061288a565b80156103a35780601f10610378576101008083540402835291602001916103a3565b820191906000526020600020905b81548152906001019060200180831161038657829003601f168201915b5050505050908060040154908060050154908060060160009054906101000a900460ff16905087565b816005600082815260200190815260200160002060009054906101000a900473ffffffffffffffffffffffffffffffffffffffff1673ffffffffffffffffffffffffffffffffffffffff163373ffffffffffffffffffffffffffffffffffffffff161461046e576040517f08c379a00000000000000000000000000000000000000000000000000000000081526004016104659061292d565b60405180910390fd5b6005600082815260200190815260200160002060006101000a81549073ffffffffffffffffffffffffffffffffffffffff0219169055807f7cc135e0cebb02c3480ae5d74d377283180a2601f8f644edf7987b009316c63a60405160405180910390a2827fea200e7bce6011644b83e776dbbccd3ee0ac5b3ce0c64304d7f396640d3569a883604051610501919061294d565b60405180910390a26000600b600085815260200190815260200160002060009054906101000a900473ffffffffffffffffffffffffffffffffffffffff1690506000600c600086815260200190815260200160002054905083600a60008473ffffffffffffffffffffffffffffffffffffffff1673ffffffffffffffffffffffffffffffffffffffff16815260200190815260200160002082815481106105ab576105aa612968565b5b9060005260206000209060070201600401819055506001600a60008473ffffffffffffffffffffffffffffffffffffffff1673ffffffffffffffffffffffffffffffffffffffff168152602001908152602001600020828154811061061357610612612968565b5b906000526020600020906007020160060160006101000a81548160ff0219169083151502179055505050505050565b61064a611fb2565b6000600a60008473ffffffffffffffffffffffffffffffffffffffff1673ffffffffffffffffffffffffffffffffffffffff16815260200190815260200160002080549050116106cf576040517f08c379a00000000000000000000000000000000000000000000000000000000081526004016106c6906129e3565b60405180910390fd5b600a60008373ffffffffffffffffffffffffffffffffffffffff1673ffffffffffffffffffffffffffffffffffffffff1681526020019081526020016000206001600a60008573ffffffffffffffffffffffffffffffffffffffff1673ffffffffffffffffffffffffffffffffffffffff1681526020019081526020016000208054905061075d9190612a32565b8154811061076e5761076d612968565b5b90600052602060002090600702016040518060e00160405290816000820180546107979061288a565b80601f01602080910402602001604051908101604052809291908181526020018280546107c39061288a565b80156108105780601f106107e557610100808354040283529160200191610810565b820191906000526020600020905b8154815290600101906020018083116107f357829003601f168201915b505050505081526020016001820180546108299061288a565b80601f01602080910402602001604051908101604052809291908181526020018280546108559061288a565b80156108a25780601f10610877576101008083540402835291602001916108a2565b820191906000526020600020905b81548152906001019060200180831161088557829003601f168201915b50505050508152602001600282015481526020016003820180546108c59061288a565b80601f01602080910402602001604051908101604052809291908181526020018280546108f19061288a565b801561093e5780601f106109135761010080835404028352916020019161093e565b820191906000526020600020905b81548152906001019060200180831161092157829003601f168201915b5050505050815260200160048201548152602001600582015481526020016006820160009054906101000a900460ff1615151515815250509050919050565b60606000600a60008473ffffffffffffffffffffffffffffffffffffffff1673ffffffffffffffffffffffffffffffffffffffff168152602001908152602001600020805480602002602001604051908101604052809291908181526020016000905b82821015610c0157838290600052602060002090600702016040518060e0016040529081600082018054610a139061288a565b80601f0160208091040260200160405190810160405280929190818152602001828054610a3f9061288a565b8015610a8c5780601f10610a6157610100808354040283529160200191610a8c565b820191906000526020600020905b815481529060010190602001808311610a6f57829003601f168201915b50505050508152602001600182018054610aa59061288a565b80601f0160208091040260200160405190810160405280929190818152602001828054610ad19061288a565b8015610b1e5780601f10610af357610100808354040283529160200191610b1e565b820191906000526020600020905b815481529060010190602001808311610b0157829003601f168201915b5050505050815260200160028201548152602001600382018054610b419061288a565b80601f0160208091040260200160405190810160405280929190818152602001828054610b6d9061288a565b8015610bba5780601f10610b8f57610100808354040283529160200191610bba565b820191906000526020600020905b815481529060010190602001808311610b9d57829003601f168201915b5050505050815260200160048201548152602001600582015481526020016006820160009054906101000a900460ff161515151581525050815260200190600101906109e0565b50505050905060008151905060008111610c50576040517f08c379a0000000000000000000000000000000000000000000000000000000008152600401610c4790612ab2565b60405180910390fd5b60008167ffffffffffffffff811115610c6c57610c6b61260d565b5b604051908082528060200260200182016040528015610ca557816020015b610c92611fb2565b815260200190600190039081610c8a5790505b50905060005b82811015610cf957838181518110610cc657610cc5612968565b5b6020026020010151828281518110610ce157610ce0612968565b5b60200260200101819052508080600101915050610cab565b50809350505050919050565b600760009054906101000a900473ffffffffffffffffffffffffffffffffffffffff1673ffffffffffffffffffffffffffffffffffffffff163373ffffffffffffffffffffffffffffffffffffffff1614610d95576040517f08c379a0000000000000000000000000000000000000000000000000000000008152600401610d8c90612b1e565b60405180910390fd5b6000600660009054906101000a900473ffffffffffffffffffffffffffffffffffffffff16905033600660006101000a81548173ffffffffffffffffffffffffffffffffffffffff021916908373ffffffffffffffffffffffffffffffffffffffff1602179055506000600760006101000a81548173ffffffffffffffffffffffffffffffffffffffff021916908373ffffffffffffffffffffffffffffffffffffffff1602179055503373ffffffffffffffffffffffffffffffffffffffff168173ffffffffffffffffffffffffffffffffffffffff167f8be0079c531659141344cd1fd0a4f28419497f9722a3daafe3b4186f6b6457e060405160405180910390a350565b600080610eb360085430634357855e60e01b611370565b905060008787610ec2886113a1565b86604051602001610ed69493929190612cf6565b6040516020818303038152906040529050610f316040518060400160405280600381526020017f6765740000000000000000000000000000000000000000000000000000000000815250828461146f9092919063ffffffff16565b610fb06040518060400160405280600481526020017f70617468000000000000000000000000000000000000000000000000000000008152506040518060400160405280600d81526020017f646174612c656d697373696f6e000000000000000000000000000000000000008152508461146f9092919063ffffffff16565b60006040518060e001604052808a8152602001898152602001888152602001868152602001878152602001428152602001600015158152509050600a60003373ffffffffffffffffffffffffffffffffffffffff1673ffffffffffffffffffffffffffffffffffffffff16815260200190815260200160002081908060018154018082558091505060019003906000526020600020906007020160009091909190915060008201518160000190816110689190612f0c565b50602082015181600101908161107e9190612f0c565b5060408201518160020155606082015181600301908161109e9190612f0c565b506080820151816004015560a0820151816005015560c08201518160060160006101000a81548160ff02191690831515021790555050506110e1836009546114a2565b935033600b600086815260200190815260200160002060006101000a81548173ffffffffffffffffffffffffffffffffffffffff021916908373ffffffffffffffffffffffffffffffffffffffff1602179055506001600a60003373ffffffffffffffffffffffffffffffffffffffff1673ffffffffffffffffffffffffffffffffffffffff168152602001908152602001600020805490506111849190612a32565b600c600086815260200190815260200160002081905550837f4164b4728b41b291351838a49270ca9a24c4cc248d826c9c74e17ffc6b35d3558a8a8a896040516111d19493929190612fde565b60405180910390a250505095945050505050565b6000600660009054906101000a900473ffffffffffffffffffffffffffffffffffffffff16905090565b6112176114d9565b600061122161156b565b90508073ffffffffffffffffffffffffffffffffffffffff1663a9059cbb338373ffffffffffffffffffffffffffffffffffffffff166370a08231306040518263ffffffff1660e01b81526004016112799190612840565b602060405180830381865afa158015611296573d6000803e3d6000fd5b505050506040513d601f19601f820116820180604052508101906112ba919061304d565b6040518363ffffffff1660e01b81526004016112d792919061307a565b6020604051808303816000875af11580156112f6573d6000803e3d6000fd5b505050506040513d601f19601f8201168201806040525081019061131a91906130cf565b611359576040517f08c379a000000000000000000000000000000000000000000000000000000000815260040161135090613148565b60405180910390fd5b50565b6113646114d9565b61136d81611595565b50565b611378611ff1565b611380611ff1565b611397858585846116c3909392919063ffffffff16565b9150509392505050565b6060600060016113b084611773565b01905060008167ffffffffffffffff8111156113cf576113ce61260d565b5b6040519080825280601f01601f1916602001820160405280156114015781602001600182028036833780820191505090505b509050600082602001820190505b600115611464578080600190039150507f3031323334353637383961626364656600000000000000000000000000000000600a86061a8153600a858161145857611457613168565b5b0494506000850361140f575b819350505050919050565b6114868284608001516118c690919063ffffffff16565b61149d8184608001516118c690919063ffffffff16565b505050565b60006114d1600360009054906101000a900473ffffffffffffffffffffffffffffffffffffffff1684846118eb565b905092915050565b600660009054906101000a900473ffffffffffffffffffffffffffffffffffffffff1673ffffffffffffffffffffffffffffffffffffffff163373ffffffffffffffffffffffffffffffffffffffff1614611569576040517f08c379a0000000000000000000000000000000000000000000000000000000008152600401611560906131e3565b60405180910390fd5b565b6000600260009054906101000a900473ffffffffffffffffffffffffffffffffffffffff16905090565b3373ffffffffffffffffffffffffffffffffffffffff168173ffffffffffffffffffffffffffffffffffffffff1603611603576040517f08c379a00000000000000000000000000000000000000000000000000000000081526004016115fa9061324f565b60405180910390fd5b80600760006101000a81548173ffffffffffffffffffffffffffffffffffffffff021916908373ffffffffffffffffffffffffffffffffffffffff1602179055508073ffffffffffffffffffffffffffffffffffffffff16600660009054906101000a900473ffffffffffffffffffffffffffffffffffffffff1673ffffffffffffffffffffffffffffffffffffffff167fed8889f560326eb138920d842192f0eb3dd22b4f139c87a2c57538e05bae127860405160405180910390a350565b6116cb611ff1565b6116db85608001516101006119b7565b508385600001818152505082856020019073ffffffffffffffffffffffffffffffffffffffff16908173ffffffffffffffffffffffffffffffffffffffff16815250508185604001907bffffffffffffffffffffffffffffffffffffffffffffffffffffffff191690817bffffffffffffffffffffffffffffffffffffffffffffffffffffffff191681525050849050949350505050565b600080600090507a184f03e93ff9f4daa797ed6e38ed64bf6a1f01000000000000000083106117d1577a184f03e93ff9f4daa797ed6e38ed64bf6a1f01000000000000000083816117c7576117c6613168565b5b0492506040810190505b6d04ee2d6d415b85acef8100000000831061180e576d04ee2d6d415b85acef8100000000838161180457611803613168565b5b0492506020810190505b662386f26fc10000831061183d57662386f26fc10000838161183357611832613168565b5b0492506010810190505b6305f5e1008310611866576305f5e100838161185c5761185b613168565b5b0492506008810190505b612710831061188b57612710838161188157611880613168565b5b0492506004810190505b606483106118ae57606483816118a4576118a3613168565b5b0492506002810190505b600a83106118bd576001810190505b80915050919050565b6118d38260038351611a21565b6118e68183611ba690919063ffffffff16565b505050565b6000806004549050600181611900919061326f565b6004819055506000634042994660e01b60008087600001513089604001518760018c6080015160000151604051602401611941989796959493929190613333565b604051602081830303815290604052907bffffffffffffffffffffffffffffffffffffffffffffffffffffffff19166020820180517bffffffffffffffffffffffffffffffffffffffffffffffffffffffff838183161783525050505090506119ac86838684611bc8565b925050509392505050565b6119bf61205e565b60006020836119ce91906133b8565b146119fa576020826119e091906133b8565b60206119ec9190612a32565b826119f7919061326f565b91505b81836020018181525050604051808452600081528281016020016040525082905092915050565b60178167ffffffffffffffff1611611a5857611a528160058460ff16901b60ff161784611d5d90919063ffffffff16565b50611ba1565b60ff8167ffffffffffffffff1611611aae57611a87601860058460ff16901b1784611d5d90919063ffffffff16565b50611aa88167ffffffffffffffff16600185611d7d9092919063ffffffff16565b50611ba0565b61ffff8167ffffffffffffffff1611611b0557611ade601960058460ff16901b1784611d5d90919063ffffffff16565b50611aff8167ffffffffffffffff16600285611d7d9092919063ffffffff16565b50611b9f565b63ffffffff8167ffffffffffffffff1611611b5e57611b37601a60058460ff16901b1784611d5d90919063ffffffff16565b50611b588167ffffffffffffffff16600485611d7d9092919063ffffffff16565b50611b9e565b611b7b601b60058460ff16901b1784611d5d90919063ffffffff16565b50611b9c8167ffffffffffffffff16600885611d7d9092919063ffffffff16565b505b5b5b5b505050565b611bae61205e565b611bc083846000015151848551611d9f565b905092915050565b60003084604051602001611bdd929190613498565b604051602081830303815290604052805190602001209050846005600083815260200190815260200160002060006101000a81548173ffffffffffffffffffffffffffffffffffffffff021916908373ffffffffffffffffffffffffffffffffffffffff160217905550807fb5e6e01e79f91267dc17b4e6314d5d4d03593d2ceee0fbb452b750bd70ea5af960405160405180910390a2600260009054906101000a900473ffffffffffffffffffffffffffffffffffffffff1673ffffffffffffffffffffffffffffffffffffffff16634000aea08685856040518463ffffffff1660e01b8152600401611cd3939291906134c4565b6020604051808303816000875af1158015611cf2573d6000803e3d6000fd5b505050506040513d601f19601f82011682018060405250810190611d1691906130cf565b611d55576040517f08c379a0000000000000000000000000000000000000000000000000000000008152600401611d4c90613574565b60405180910390fd5b949350505050565b611d6561205e565b611d758384600001515184611e8e565b905092915050565b611d8561205e565b611d96848560000151518585611ee4565b90509392505050565b611da761205e565b8251821115611db557600080fd5b84602001518285611dc6919061326f565b1115611dfb57611dfa856002611deb88602001518887611de6919061326f565b611f72565b611df59190613594565b611f8e565b5b600080865180518760208301019350808887011115611e1a5787860182525b60208701925050505b60208410611e615780518252602082611e3c919061326f565b9150602081611e4b919061326f565b9050602084611e5a9190612a32565b9350611e23565b60006001856020036101000a03905080198251168184511681811785525050508692505050949350505050565b611e9661205e565b83602001518310611ebc57611ebb8460028660200151611eb69190613594565b611f8e565b5b83518051602085830101848153818603611ed7576001820183525b5050508390509392505050565b611eec61205e565b84602001518483611efd919061326f565b1115611f2557611f248560028685611f15919061326f565b611f1f9190613594565b611f8e565b5b6000600183610100611f379190613709565b611f419190612a32565b90508551838682010185831982511617815281518588011115611f645784870182525b505085915050949350505050565b600081831115611f8457829050611f88565b8190505b92915050565b600082600001519050611fa183836119b7565b50611fac8382611ba6565b50505050565b6040518060e001604052806060815260200160608152602001600081526020016060815260200160008152602001600081526020016000151581525090565b6040518060a0016040528060008019168152602001600073ffffffffffffffffffffffffffffffffffffffff16815260200160007bffffffffffffffffffffffffffffffffffffffffffffffffffffffff191681526020016000815260200161205861205e565b81525090565b604051806040016040528060608152602001600081525090565b6000604051905090565b600080fd5b600080fd5b600073ffffffffffffffffffffffffffffffffffffffff82169050919050565b60006120b78261208c565b9050919050565b6120c7816120ac565b81146120d257600080fd5b50565b6000813590506120e4816120be565b92915050565b6000819050919050565b6120fd816120ea565b811461210857600080fd5b50565b60008135905061211a816120f4565b92915050565b6000806040838503121561213757612136612082565b5b6000612145858286016120d5565b92505060206121568582860161210b565b9150509250929050565b600081519050919050565b600082825260208201905092915050565b60005b8381101561219a57808201518184015260208101905061217f565b60008484015250505050565b6000601f19601f8301169050919050565b60006121c282612160565b6121cc818561216b565b93506121dc81856020860161217c565b6121e5816121a6565b840191505092915050565b6121f9816120ea565b82525050565b60008115159050919050565b612214816121ff565b82525050565b600060e0820190508181036000830152612234818a6121b7565b9050818103602083015261224881896121b7565b905061225760408301886121f0565b818103606083015261226981876121b7565b905061227860808301866121f0565b61228560a08301856121f0565b61229260c083018461220b565b98975050505050505050565b6000819050919050565b6122b18161229e565b81146122bc57600080fd5b50565b6000813590506122ce816122a8565b92915050565b600080604083850312156122eb576122ea612082565b5b60006122f9858286016122bf565b925050602061230a8582860161210b565b9150509250929050565b60006020828403121561232a57612329612082565b5b6000612338848285016120d5565b91505092915050565b600082825260208201905092915050565b600061235d82612160565b6123678185612341565b935061237781856020860161217c565b612380816121a6565b840191505092915050565b612394816120ea565b82525050565b6123a3816121ff565b82525050565b600060e08301600083015184820360008601526123c68282612352565b915050602083015184820360208601526123e08282612352565b91505060408301516123f5604086018261238b565b506060830151848203606086015261240d8282612352565b9150506080830151612422608086018261238b565b5060a083015161243560a086018261238b565b5060c083015161244860c086018261239a565b508091505092915050565b6000602082019050818103600083015261246d81846123a9565b905092915050565b600081519050919050565b600082825260208201905092915050565b6000819050602082019050919050565b600060e08301600083015184820360008601526124be8282612352565b915050602083015184820360208601526124d88282612352565b91505060408301516124ed604086018261238b565b50606083015184820360608601526125058282612352565b915050608083015161251a608086018261238b565b5060a083015161252d60a086018261238b565b5060c083015161254060c086018261239a565b508091505092915050565b600061255783836124a1565b905092915050565b6000602082019050919050565b600061257782612475565b6125818185612480565b93508360208202850161259385612491565b8060005b858110156125cf57848403895281516125b0858261254b565b94506125bb8361255f565b925060208a01995050600181019050612597565b50829750879550505050505092915050565b600060208201905081810360008301526125fb818461256c565b905092915050565b600080fd5b600080fd5b7f4e487b7100000000000000000000000000000000000000000000000000000000600052604160045260246000fd5b612645826121a6565b810181811067ffffffffffffffff821117156126645761266361260d565b5b80604052505050565b6000612677612078565b9050612683828261263c565b919050565b600067ffffffffffffffff8211156126a3576126a261260d565b5b6126ac826121a6565b9050602081019050919050565b82818337600083830152505050565b60006126db6126d684612688565b61266d565b9050828152602081018484840111156126f7576126f6612608565b5b6127028482856126b9565b509392505050565b600082601f83011261271f5761271e612603565b5b813561272f8482602086016126c8565b91505092915050565b600080600080600060a0868803121561275457612753612082565b5b600086013567ffffffffffffffff81111561277257612771612087565b5b61277e8882890161270a565b955050602086013567ffffffffffffffff81111561279f5761279e612087565b5b6127ab8882890161270a565b94505060406127bc8882890161210b565b93505060606127cd8882890161210b565b925050608086013567ffffffffffffffff8111156127ee576127ed612087565b5b6127fa8882890161270a565b9150509295509295909350565b6128108161229e565b82525050565b600060208201905061282b6000830184612807565b92915050565b61283a816120ac565b82525050565b60006020820190506128556000830184612831565b92915050565b7f4e487b7100000000000000000000000000000000000000000000000000000000600052602260045260246000fd5b600060028204905060018216806128a257607f821691505b6020821081036128b5576128b461285b565b5b50919050565b7f536f75726365206d75737420626520746865206f7261636c65206f662074686560008201527f2072657175657374000000000000000000000000000000000000000000000000602082015250565b600061291760288361216b565b9150612922826128bb565b604082019050919050565b600060208201905081810360008301526129468161290a565b9050919050565b600060208201905061296260008301846121f0565b92915050565b7f4e487b7100000000000000000000000000000000000000000000000000000000600052603260045260246000fd5b7f4e6f20666c696768747320666f756e6400000000000000000000000000000000600082015250565b60006129cd60108361216b565b91506129d882612997565b602082019050919050565b600060208201905081810360008301526129fc816129c0565b9050919050565b7f4e487b7100000000000000000000000000000000000000000000000000000000600052601160045260246000fd5b6000612a3d826120ea565b9150612a48836120ea565b9250828203905081811115612a6057612a5f612a03565b5b92915050565b7f4e6f20666c69676874206461746120617661696c61626c650000000000000000600082015250565b6000612a9c60188361216b565b9150612aa782612a66565b602082019050919050565b60006020820190508181036000830152612acb81612a8f565b9050919050565b7f4d7573742062652070726f706f736564206f776e657200000000000000000000600082015250565b6000612b0860168361216b565b9150612b1382612ad2565b602082019050919050565b60006020820190508181036000830152612b3781612afb565b9050919050565b600081905092915050565b7f68747470733a2f2f636172626f6e2d656d697373696f6e2d6e696e652e76657260008201527f63656c2e6170702f6170692f63616c63756c6174652d656d697373696f6e3f6460208201527f65706172747572653d0000000000000000000000000000000000000000000000604082015250565b6000612bcb604983612b3e565b9150612bd682612b49565b604982019050919050565b6000612bec82612160565b612bf68185612b3e565b9350612c0681856020860161217c565b80840191505092915050565b7f2664657374696e6174696f6e3d00000000000000000000000000000000000000600082015250565b6000612c48600d83612b3e565b9150612c5382612c12565b600d82019050919050565b7f2670617373656e676572733d0000000000000000000000000000000000000000600082015250565b6000612c94600c83612b3e565b9150612c9f82612c5e565b600c82019050919050565b7f2674726970547970653d00000000000000000000000000000000000000000000600082015250565b6000612ce0600a83612b3e565b9150612ceb82612caa565b600a82019050919050565b6000612d0182612bbe565b9150612d0d8287612be1565b9150612d1882612c3b565b9150612d248286612be1565b9150612d2f82612c87565b9150612d3b8285612be1565b9150612d4682612cd3565b9150612d528284612be1565b915081905095945050505050565b60008190508160005260206000209050919050565b60006020601f8301049050919050565b600082821b905092915050565b600060088302612dc27fffffffffffffffffffffffffffffffffffffffffffffffffffffffffffffffff82612d85565b612dcc8683612d85565b95508019841693508086168417925050509392505050565b6000819050919050565b6000612e09612e04612dff846120ea565b612de4565b6120ea565b9050919050565b6000819050919050565b612e2383612dee565b612e37612e2f82612e10565b848454612d92565b825550505050565b600090565b612e4c612e3f565b612e57818484612e1a565b505050565b5b81811015612e7b57612e70600082612e44565b600181019050612e5d565b5050565b601f821115612ec057612e9181612d60565b612e9a84612d75565b81016020851015612ea9578190505b612ebd612eb585612d75565b830182612e5c565b50505b505050565b600082821c905092915050565b6000612ee360001984600802612ec5565b1980831691505092915050565b6000612efc8383612ed2565b9150826002028217905092915050565b612f1582612160565b67ffffffffffffffff811115612f2e57612f2d61260d565b5b612f38825461288a565b612f43828285612e7f565b600060209050601f831160018114612f765760008415612f64578287015190505b612f6e8582612ef0565b865550612fd6565b601f198416612f8486612d60565b60005b82811015612fac57848901518255600182019150602085019450602081019050612f87565b86831015612fc95784890151612fc5601f891682612ed2565b8355505b6001600288020188555050505b505050505050565b60006080820190508181036000830152612ff881876121b7565b9050818103602083015261300c81866121b7565b905061301b60408301856121f0565b818103606083015261302d81846121b7565b905095945050505050565b600081519050613047816120f4565b92915050565b60006020828403121561306357613062612082565b5b600061307184828501613038565b91505092915050565b600060408201905061308f6000830185612831565b61309c60208301846121f0565b9392505050565b6130ac816121ff565b81146130b757600080fd5b50565b6000815190506130c9816130a3565b92915050565b6000602082840312156130e5576130e4612082565b5b60006130f3848285016130ba565b91505092915050565b7f556e61626c6520746f207472616e736665720000000000000000000000000000600082015250565b600061313260128361216b565b915061313d826130fc565b602082019050919050565b6000602082019050818103600083015261316181613125565b9050919050565b7f4e487b7100000000000000000000000000000000000000000000000000000000600052601260045260246000fd5b7f4f6e6c792063616c6c61626c65206279206f776e657200000000000000000000600082015250565b60006131cd60168361216b565b91506131d882613197565b602082019050919050565b600060208201905081810360008301526131fc816131c0565b9050919050565b7f43616e6e6f74207472616e7366657220746f2073656c66000000000000000000600082015250565b600061323960178361216b565b915061324482613203565b602082019050919050565b600060208201905081810360008301526132688161322c565b9050919050565b600061327a826120ea565b9150613285836120ea565b925082820190508082111561329d5761329c612a03565b5b92915050565b60007fffffffff0000000000000000000000000000000000000000000000000000000082169050919050565b6132d8816132a3565b82525050565b600081519050919050565b600082825260208201905092915050565b6000613305826132de565b61330f81856132e9565b935061331f81856020860161217c565b613328816121a6565b840191505092915050565b600061010082019050613349600083018b612831565b613356602083018a6121f0565b6133636040830189612807565b6133706060830188612831565b61337d60808301876132cf565b61338a60a08301866121f0565b61339760c08301856121f0565b81810360e08301526133a981846132fa565b90509998505050505050505050565b60006133c3826120ea565b91506133ce836120ea565b9250826133de576133dd613168565b5b828206905092915050565b60006134046133ff6133fa8461208c565b612de4565b61208c565b9050919050565b6000613416826133e9565b9050919050565b60006134288261340b565b9050919050565b60008160601b9050919050565b60006134478261342f565b9050919050565b60006134598261343c565b9050919050565b61347161346c8261341d565b61344e565b82525050565b6000819050919050565b61349261348d826120ea565b613477565b82525050565b60006134a48285613460565b6014820191506134b48284613481565b6020820191508190509392505050565b60006060820190506134d96000830186612831565b6134e660208301856121f0565b81810360408301526134f881846132fa565b9050949350505050565b7f756e61626c6520746f207472616e73666572416e6443616c6c20746f206f726160008201527f636c650000000000000000000000000000000000000000000000000000000000602082015250565b600061355e60238361216b565b915061356982613502565b604082019050919050565b6000602082019050818103600083015261358d81613551565b9050919050565b600061359f826120ea565b91506135aa836120ea565b92508282026135b8816120ea565b915082820484148315176135cf576135ce612a03565b5b5092915050565b60008160011c9050919050565b6000808291508390505b600185111561362d5780860481111561360957613608612a03565b5b60018516156136185780820291505b8081029050613626856135d6565b94506135ed565b94509492505050565b6000826136465760019050613702565b816136545760009050613702565b816001811461366a5760028114613674576136a3565b6001915050613702565b60ff84111561368657613685612a03565b5b8360020a91508482111561369d5761369c612a03565b5b50613702565b5060208310610133831016604e8410600b84101617156136d85782820a9050838111156136d3576136d2612a03565b5b613702565b6136e584848460016135e3565b925090508184048111156136fc576136fb612a03565b5b81810290505b9392505050565b6000613714826120ea565b915061371f836120ea565b925061374c7fffffffffffffffffffffffffffffffffffffffffffffffffffffffffffffffff8484613636565b90509291505056fea2646970667358221220b27e2851a44fd6893d9798a739437d03a72b9ae2e96d6aa7e18958fce8b43e4164736f6c634300081b0033",
  "linkReferences": {},
  "deployedLinkReferences": {}
}