{
  "_format": "hh-sol-artifact-1",
  "contractName": "EcoToken",
  "sourceName": "contracts/EcoToken.sol",
  "abi": [
    {
      "inputs": [],
      "stateMutability": "nonpayable",
      "type": "constructor"
    },
    {
      "inputs": [
        {
          "internalType": "address",
          "name": "spender",
          "type": "address"
        },
        {
          "internalType": "uint256",
          "name": "allowance",
          "type": "uint256"
        },
        {
          "internalType": "uint256",
          "name": "needed",
          "type": "uint256"
        }
      ],
      "name": "ERC20InsufficientAllowance",
      "type": "error"
    },
    {
      "inputs": [
        {
          "internalType": "address",
          "name": "sender",
          "type": "address"
        },
        {
          "internalType": "uint256",
          "name": "balance",
          "type": "uint256"
        },
        {
          "internalType": "uint256",
          "name": "needed",
          "type": "uint256"
        }
      ],
      "name": "ERC20InsufficientBalance",
      "type": "error"
    },
    {
      "inputs": [
        {
          "internalType": "address",
          "name": "approver",
          "type": "address"
        }
      ],
      "name": "ERC20InvalidApprover",
      "type": "error"
    },
    {
      "inputs": [
        {
          "internalType": "address",
          "name": "receiver",
          "type": "address"
        }
      ],
      "name": "ERC20InvalidReceiver",
      "type": "error"
    },
    {
      "inputs": [
        {
          "internalType": "address",
          "name": "sender",
          "type": "address"
        }
      ],
      "name": "ERC20InvalidSender",
      "type": "error"
    },
    {
      "inputs": [
        {
          "internalType": "address",
          "name": "spender",
          "type": "address"
        }
      ],
      "name": "ERC20InvalidSpender",
      "type": "error"
    },
    {
      "inputs": [
        {
          "internalType": "address",
          "name": "owner",
          "type": "address"
        }
      ],
      "name": "OwnableInvalidOwner",
      "type": "error"
    },
    {
      "inputs": [
        {
          "internalType": "address",
          "name": "account",
          "type": "address"
        }
      ],
      "name": "OwnableUnauthorizedAccount",
      "type": "error"
    },
    {
      "anonymous": false,
      "inputs": [
        {
          "indexed": true,
          "internalType": "address",
          "name": "owner",
          "type": "address"
        },
        {
          "indexed": true,
          "internalType": "address",
          "name": "spender",
          "type": "address"
        },
        {
          "indexed": false,
          "internalType": "uint256",
          "name": "value",
          "type": "uint256"
        }
      ],
      "name": "Approval",
      "type": "event"
    },
    {
      "anonymous": false,
      "inputs": [
        {
          "indexed": true,
          "internalType": "address",
          "name": "minter",
          "type": "address"
        },
        {
          "indexed": false,
          "internalType": "bool",
          "name": "status",
          "type": "bool"
        }
      ],
      "name": "MinterApproved",
      "type": "event"
    },
    {
      "anonymous": false,
      "inputs": [
        {
          "indexed": true,
          "internalType": "address",
          "name": "previousOwner",
          "type": "address"
        },
        {
          "indexed": true,
          "internalType": "address",
          "name": "newOwner",
          "type": "address"
        }
      ],
      "name": "OwnershipTransferred",
      "type": "event"
    },
    {
      "anonymous": false,
      "inputs": [
        {
          "indexed": true,
          "internalType": "address",
          "name": "user",
          "type": "address"
        },
        {
          "indexed": false,
          "internalType": "uint256",
          "name": "amount",
          "type": "uint256"
        }
      ],
      "name": "TokensStaked",
      "type": "event"
    },
    {
      "anonymous": false,
      "inputs": [
        {
          "indexed": true,
          "internalType": "address",
          "name": "user",
          "type": "address"
        },
        {
          "indexed": false,
          "internalType": "uint256",
          "name": "amount",
          "type": "uint256"
        },
        {
          "indexed": false,
          "internalType": "uint256",
          "name": "reward",
          "type": "uint256"
        }
      ],
      "name": "TokensUnstaked",
      "type": "event"
    },
    {
      "anonymous": false,
      "inputs": [
        {
          "indexed": true,
          "internalType": "address",
          "name": "from",
          "type": "address"
        },
        {
          "indexed": true,
          "internalType": "address",
          "name": "to",
          "type": "address"
        },
        {
          "indexed": false,
          "internalType": "uint256",
          "name": "value",
          "type": "uint256"
        }
      ],
      "name": "Transfer",
      "type": "event"
    },
    {
      "inputs": [
        {
          "internalType": "address",
          "name": "owner",
          "type": "address"
        },
        {
          "internalType": "address",
          "name": "spender",
          "type": "address"
        }
      ],
      "name": "allowance",
      "outputs": [
        {
          "internalType": "uint256",
          "name": "",
          "type": "uint256"
        }
      ],
      "stateMutability": "view",
      "type": "function"
    },
    {
      "inputs": [
        {
          "internalType": "address",
          "name": "spender",
          "type": "address"
        },
        {
          "internalType": "uint256",
          "name": "value",
          "type": "uint256"
        }
      ],
      "name": "approve",
      "outputs": [
        {
          "internalType": "bool",
          "name": "",
          "type": "bool"
        }
      ],
      "stateMutability": "nonpayable",
      "type": "function"
    },
    {
      "inputs": [
        {
          "internalType": "address",
          "name": "",
          "type": "address"
        }
      ],
      "name": "approvedMinters",
      "outputs": [
        {
          "internalType": "bool",
          "name": "",
          "type": "bool"
        }
      ],
      "stateMutability": "view",
      "type": "function"
    },
    {
      "inputs": [
        {
          "internalType": "address",
          "name": "account",
          "type": "address"
        }
      ],
      "name": "balanceOf",
      "outputs": [
        {
          "internalType": "uint256",
          "name": "",
          "type": "uint256"
        }
      ],
      "stateMutability": "view",
      "type": "function"
    },
    {
      "inputs": [
        {
          "internalType": "address",
          "name": "user",
          "type": "address"
        }
      ],
      "name": "calculateReward",
      "outputs": [
        {
          "internalType": "uint256",
          "name": "",
          "type": "uint256"
        }
      ],
      "stateMutability": "view",
      "type": "function"
    },
    {
      "inputs": [],
      "name": "decimals",
      "outputs": [
        {
          "internalType": "uint8",
          "name": "",
          "type": "uint8"
        }
      ],
      "stateMutability": "view",
      "type": "function"
    },
    {
      "inputs": [
        {
          "internalType": "address",
          "name": "to",
          "type": "address"
        },
        {
          "internalType": "uint256",
          "name": "amount",
          "type": "uint256"
        }
      ],
      "name": "mint",
      "outputs": [],
      "stateMutability": "nonpayable",
      "type": "function"
    },
    {
      "inputs": [],
      "name": "name",
      "outputs": [
        {
          "internalType": "string",
          "name": "",
          "type": "string"
        }
      ],
      "stateMutability": "view",
      "type": "function"
    },
    {
      "inputs": [],
      "name": "owner",
      "outputs": [
        {
          "internalType": "address",
          "name": "",
          "type": "address"
        }
      ],
      "stateMutability": "view",
      "type": "function"
    },
    {
      "inputs": [],
      "name": "renounceOwnership",
      "outputs": [],
      "stateMutability": "nonpayable",
      "type": "function"
    },
    {
      "inputs": [],
      "name": "rewardRate",
      "outputs": [
        {
          "internalType": "uint256",
          "name": "",
          "type": "uint256"
        }
      ],
      "stateMutability": "view",
      "type": "function"
    },
    {
      "inputs": [
        {
          "internalType": "address",
          "name": "",
          "type": "address"
        }
      ],
      "name": "rewards",
      "outputs": [
        {
          "internalType": "uint256",
          "name": "",
          "type": "uint256"
        }
      ],
      "stateMutability": "view",
      "type": "function"
    },
    {
      "inputs": [
        {
          "internalType": "address",
          "name": "minter",
          "type": "address"
        },
        {
          "internalType": "bool",
          "name": "canMint",
          "type": "bool"
        }
      ],
      "name": "setMinter",
      "outputs": [],
      "stateMutability": "nonpayable",
      "type": "function"
    },
    {
      "inputs": [
        {
          "internalType": "uint256",
          "name": "newRate",
          "type": "uint256"
        }
      ],
      "name": "setRewardRate",
      "outputs": [],
      "stateMutability": "nonpayable",
      "type": "function"
    },
    {
      "inputs": [
        {
          "internalType": "uint256",
          "name": "amount",
          "type": "uint256"
        }
      ],
      "name": "stakeTokens",
      "outputs": [],
      "stateMutability": "nonpayable",
      "type": "function"
    },
    {
      "inputs": [
        {
          "internalType": "address",
          "name": "",
          "type": "address"
        }
      ],
      "name": "stakes",
      "outputs": [
        {
          "internalType": "uint256",
          "name": "amount",
          "type": "uint256"
        },
        {
          "internalType": "uint256",
          "name": "startTime",
          "type": "uint256"
        }
      ],
      "stateMutability": "view",
      "type": "function"
    },
    {
      "inputs": [],
      "name": "symbol",
      "outputs": [
        {
          "internalType": "string",
          "name": "",
          "type": "string"
        }
      ],
      "stateMutability": "view",
      "type": "function"
    },
    {
      "inputs": [],
      "name": "totalSupply",
      "outputs": [
        {
          "internalType": "uint256",
          "name": "",
          "type": "uint256"
        }
      ],
      "stateMutability": "view",
      "type": "function"
    },
    {
      "inputs": [
        {
          "internalType": "address",
          "name": "to",
          "type": "address"
        },
        {
          "internalType": "uint256",
          "name": "value",
          "type": "uint256"
        }
      ],
      "name": "transfer",
      "outputs": [
        {
          "internalType": "bool",
          "name": "",
          "type": "bool"
        }
      ],
      "stateMutability": "nonpayable",
      "type": "function"
    },
    {
      "inputs": [
        {
          "internalType": "address",
          "name": "from",
          "type": "address"
        },
        {
          "internalType": "address",
          "name": "to",
          "type": "address"
        },
        {
          "internalType": "uint256",
          "name": "value",
          "type": "uint256"
        }
      ],
      "name": "transferFrom",
      "outputs": [
        {
          "internalType": "bool",
          "name": "",
          "type": "bool"
        }
      ],
      "stateMutability": "nonpayable",
      "type": "function"
    },
    {
      "inputs": [
        {
          "internalType": "address",
          "name": "newOwner",
          "type": "address"
        }
      ],
      "name": "transferOwnership",
      "outputs": [],
      "stateMutability": "nonpayable",
      "type": "function"
    },
    {
      "inputs": [],
      "name": "unstakeTokens",
      "outputs": [],
      "stateMutability": "nonpayable",
      "type": "function"
    }
  ],
  "bytecode": "0x6080604052600a60065534801561001557600080fd5b50336040518060400160405280600881526020017f45636f546f6b656e0000000000000000000000000000000000000000000000008152506040518060400160405280600381526020017f45434f00000000000000000000000000000000000000000000000000000000008152508160039081610092919061072f565b5080600490816100a2919061072f565b505050600073ffffffffffffffffffffffffffffffffffffffff168173ffffffffffffffffffffffffffffffffffffffff16036101175760006040517f1e4fbdf700000000000000000000000000000000000000000000000000000000815260040161010e9190610842565b60405180910390fd5b6101268161016360201b60201c565b5061015e3361013961022960201b60201c565b600a61014591906109cc565b620f42406101539190610a17565b61023260201b60201c565b610aee565b6000600560009054906101000a900473ffffffffffffffffffffffffffffffffffffffff16905081600560006101000a81548173ffffffffffffffffffffffffffffffffffffffff021916908373ffffffffffffffffffffffffffffffffffffffff1602179055508173ffffffffffffffffffffffffffffffffffffffff168173ffffffffffffffffffffffffffffffffffffffff167f8be0079c531659141344cd1fd0a4f28419497f9722a3daafe3b4186f6b6457e060405160405180910390a35050565b60006012905090565b600073ffffffffffffffffffffffffffffffffffffffff168273ffffffffffffffffffffffffffffffffffffffff16036102a45760006040517fec442f0500000000000000000000000000000000000000000000000000000000815260040161029b9190610842565b60405180910390fd5b6102b6600083836102ba60201b60201c565b5050565b600073ffffffffffffffffffffffffffffffffffffffff168373ffffffffffffffffffffffffffffffffffffffff160361030c5780600260008282546103009190610a59565b925050819055506103df565b60008060008573ffffffffffffffffffffffffffffffffffffffff1673ffffffffffffffffffffffffffffffffffffffff16815260200190815260200160002054905081811015610398578381836040517fe450d38c00000000000000000000000000000000000000000000000000000000815260040161038f93929190610a9c565b60405180910390fd5b8181036000808673ffffffffffffffffffffffffffffffffffffffff1673ffffffffffffffffffffffffffffffffffffffff16815260200190815260200160002081905550505b600073ffffffffffffffffffffffffffffffffffffffff168273ffffffffffffffffffffffffffffffffffffffff16036104285780600260008282540392505081905550610475565b806000808473ffffffffffffffffffffffffffffffffffffffff1673ffffffffffffffffffffffffffffffffffffffff168152602001908152602001600020600082825401925050819055505b8173ffffffffffffffffffffffffffffffffffffffff168373ffffffffffffffffffffffffffffffffffffffff167fddf252ad1be2c89b69c2b068fc378daa952ba7f163c4a11628f55a4df523b3ef836040516104d29190610ad3565b60405180910390a3505050565b600081519050919050565b7f4e487b7100000000000000000000000000000000000000000000000000000000600052604160045260246000fd5b7f4e487b7100000000000000000000000000000000000000000000000000000000600052602260045260246000fd5b6000600282049050600182168061056057607f821691505b60208210810361057357610572610519565b5b50919050565b60008190508160005260206000209050919050565b60006020601f8301049050919050565b600082821b905092915050565b6000600883026105db7fffffffffffffffffffffffffffffffffffffffffffffffffffffffffffffffff8261059e565b6105e5868361059e565b95508019841693508086168417925050509392505050565b6000819050919050565b6000819050919050565b600061062c610627610622846105fd565b610607565b6105fd565b9050919050565b6000819050919050565b61064683610611565b61065a61065282610633565b8484546105ab565b825550505050565b600090565b61066f610662565b61067a81848461063d565b505050565b5b8181101561069e57610693600082610667565b600181019050610680565b5050565b601f8211156106e3576106b481610579565b6106bd8461058e565b810160208510156106cc578190505b6106e06106d88561058e565b83018261067f565b50505b505050565b600082821c905092915050565b6000610706600019846008026106e8565b1980831691505092915050565b600061071f83836106f5565b9150826002028217905092915050565b610738826104df565b67ffffffffffffffff811115610751576107506104ea565b5b61075b8254610548565b6107668282856106a2565b600060209050601f8311600181146107995760008415610787578287015190505b6107918582610713565b8655506107f9565b601f1984166107a786610579565b60005b828110156107cf578489015182556001820191506020850194506020810190506107aa565b868310156107ec57848901516107e8601f8916826106f5565b8355505b6001600288020188555050505b505050505050565b600073ffffffffffffffffffffffffffffffffffffffff82169050919050565b600061082c82610801565b9050919050565b61083c81610821565b82525050565b60006020820190506108576000830184610833565b92915050565b7f4e487b7100000000000000000000000000000000000000000000000000000000600052601160045260246000fd5b60008160011c9050919050565b6000808291508390505b60018511156108e3578086048111156108bf576108be61085d565b5b60018516156108ce5780820291505b80810290506108dc8561088c565b94506108a3565b94509492505050565b6000826108fc57600190506109b8565b8161090a57600090506109b8565b8160018114610920576002811461092a57610959565b60019150506109b8565b60ff84111561093c5761093b61085d565b5b8360020a9150848211156109535761095261085d565b5b506109b8565b5060208310610133831016604e8410600b841016171561098e5782820a9050838111156109895761098861085d565b5b6109b8565b61099b8484846001610899565b925090508184048111156109b2576109b161085d565b5b81810290505b9392505050565b600060ff82169050919050565b60006109d7826105fd565b91506109e2836109bf565b9250610a0f7fffffffffffffffffffffffffffffffffffffffffffffffffffffffffffffffff84846108ec565b905092915050565b6000610a22826105fd565b9150610a2d836105fd565b9250828202610a3b816105fd565b91508282048414831517610a5257610a5161085d565b5b5092915050565b6000610a64826105fd565b9150610a6f836105fd565b9250828201905080821115610a8757610a8661085d565b5b92915050565b610a96816105fd565b82525050565b6000606082019050610ab16000830186610833565b610abe6020830185610a8d565b610acb6040830184610a8d565b949350505050565b6000602082019050610ae86000830184610a8d565b92915050565b611ca280610afd6000396000f3fe608060405234801561001057600080fd5b50600436106101425760003560e01c80637b0a47ee116100b8578063a8b5e6ea1161007c578063a8b5e6ea14610354578063a9059cbb14610384578063cf456ae7146103b4578063d82e3962146103d0578063dd62ed3e14610400578063f2fde38b1461043057610142565b80637b0a47ee146102d45780638da5cb5b146102f257806395d89b41146103105780639e447fc61461032e578063a5ce413b1461034a57610142565b806323b872dd1161010a57806323b872dd14610214578063313ce5671461024457806340c10f191461026257806370a082311461027e578063715018a6146102ae5780637547c7a3146102b857610142565b806306fdde03146101475780630700037d14610165578063095ea7b31461019557806316934fc4146101c557806318160ddd146101f6575b600080fd5b61014f61044c565b60405161015c91906115ae565b60405180910390f35b61017f600480360381019061017a9190611633565b6104de565b60405161018c9190611679565b60405180910390f35b6101af60048036038101906101aa91906116c0565b6104f6565b6040516101bc919061171b565b60405180910390f35b6101df60048036038101906101da9190611633565b610519565b6040516101ed929190611736565b60405180910390f35b6101fe61053d565b60405161020b9190611679565b60405180910390f35b61022e6004803603810190610229919061175f565b610547565b60405161023b919061171b565b60405180910390f35b61024c610576565b60405161025991906117ce565b60405180910390f35b61027c600480360381019061027791906116c0565b61057f565b005b61029860048036038101906102939190611633565b610656565b6040516102a59190611679565b60405180910390f35b6102b661069e565b005b6102d260048036038101906102cd91906117e9565b6106b2565b005b6102dc610849565b6040516102e99190611679565b60405180910390f35b6102fa61084f565b6040516103079190611825565b60405180910390f35b610318610879565b60405161032591906115ae565b60405180910390f35b610348600480360381019061034391906117e9565b61090b565b005b61035261091d565b005b61036e60048036038101906103699190611633565b610ad5565b60405161037b919061171b565b60405180910390f35b61039e600480360381019061039991906116c0565b610af5565b6040516103ab919061171b565b60405180910390f35b6103ce60048036038101906103c9919061186c565b610b18565b005b6103ea60048036038101906103e59190611633565b610bc9565b6040516103f79190611679565b60405180910390f35b61041a600480360381019061041591906118ac565b610ca4565b6040516104279190611679565b60405180910390f35b61044a60048036038101906104459190611633565b610d2b565b005b60606003805461045b9061191b565b80601f01602080910402602001604051908101604052809291908181526020018280546104879061191b565b80156104d45780601f106104a9576101008083540402835291602001916104d4565b820191906000526020600020905b8154815290600101906020018083116104b757829003601f168201915b5050505050905090565b60086020528060005260406000206000915090505481565b600080610501610db1565b905061050e818585610db9565b600191505092915050565b60076020528060005260406000206000915090508060000154908060010154905082565b6000600254905090565b600080610552610db1565b905061055f858285610dcb565b61056a858585610e5f565b60019150509392505050565b60006012905090565b600960003373ffffffffffffffffffffffffffffffffffffffff1673ffffffffffffffffffffffffffffffffffffffff16815260200190815260200160002060009054906101000a900460ff168061060957506105da61084f565b73ffffffffffffffffffffffffffffffffffffffff163373ffffffffffffffffffffffffffffffffffffffff16145b610648576040517f08c379a000000000000000000000000000000000000000000000000000000000815260040161063f90611998565b60405180910390fd5b6106528282610f53565b5050565b60008060008373ffffffffffffffffffffffffffffffffffffffff1673ffffffffffffffffffffffffffffffffffffffff168152602001908152602001600020549050919050565b6106a6610fd5565b6106b0600061105c565b565b806106bc33610656565b10156106fd576040517f08c379a00000000000000000000000000000000000000000000000000000000081526004016106f490611a04565b60405180910390fd5b6000600760003373ffffffffffffffffffffffffffffffffffffffff1673ffffffffffffffffffffffffffffffffffffffff1681526020019081526020016000206000015414610782576040517f08c379a000000000000000000000000000000000000000000000000000000000815260040161077990611a70565b60405180910390fd5b61078d333083610e5f565b604051806040016040528082815260200142815250600760003373ffffffffffffffffffffffffffffffffffffffff1673ffffffffffffffffffffffffffffffffffffffff16815260200190815260200160002060008201518160000155602082015181600101559050503373ffffffffffffffffffffffffffffffffffffffff167fb539ca1e5c8d398ddf1c41c30166f33404941683be4683319b57669a93dad4ef8260405161083e9190611679565b60405180910390a250565b60065481565b6000600560009054906101000a900473ffffffffffffffffffffffffffffffffffffffff16905090565b6060600480546108889061191b565b80601f01602080910402602001604051908101604052809291908181526020018280546108b49061191b565b80156109015780601f106108d657610100808354040283529160200191610901565b820191906000526020600020905b8154815290600101906020018083116108e457829003601f168201915b5050505050905090565b610913610fd5565b8060068190555050565b6000600760003373ffffffffffffffffffffffffffffffffffffffff1673ffffffffffffffffffffffffffffffffffffffff16815260200190815260200160002060405180604001604052908160008201548152602001600182015481525050905060008160000151116109c6576040517f08c379a00000000000000000000000000000000000000000000000000000000081526004016109bd90611adc565b60405180910390fd5b60006109d133610bc9565b90506000600760003373ffffffffffffffffffffffffffffffffffffffff1673ffffffffffffffffffffffffffffffffffffffff168152602001908152602001600020600001819055506000600760003373ffffffffffffffffffffffffffffffffffffffff1673ffffffffffffffffffffffffffffffffffffffff16815260200190815260200160002060010181905550610a7d3033838560000151610a789190611b2b565b610e5f565b3373ffffffffffffffffffffffffffffffffffffffff167f6f2d3e000c89d37446b7c0374c0125068ff316d1e3ee302336478a8cd03c2336836000015183604051610ac9929190611736565b60405180910390a25050565b60096020528060005260406000206000915054906101000a900460ff1681565b600080610b00610db1565b9050610b0d818585610e5f565b600191505092915050565b610b20610fd5565b80600960008473ffffffffffffffffffffffffffffffffffffffff1673ffffffffffffffffffffffffffffffffffffffff16815260200190815260200160002060006101000a81548160ff0219169083151502179055508173ffffffffffffffffffffffffffffffffffffffff167f364446b390bfac30fd59f2be7bea9aa4ee2d5a29c77609e07cc302908878fd7b82604051610bbd919061171b565b60405180910390a25050565b600080600760008473ffffffffffffffffffffffffffffffffffffffff1673ffffffffffffffffffffffffffffffffffffffff1681526020019081526020016000206040518060400160405290816000820154815260200160018201548152505090506000816000015103610c42576000915050610c9f565b6000816020015142610c549190611b5f565b9050600060646006548460000151610c6c9190611b93565b610c769190611c04565b905060006301e133808383610c8b9190611b93565b610c959190611c04565b9050809450505050505b919050565b6000600160008473ffffffffffffffffffffffffffffffffffffffff1673ffffffffffffffffffffffffffffffffffffffff16815260200190815260200160002060008373ffffffffffffffffffffffffffffffffffffffff1673ffffffffffffffffffffffffffffffffffffffff16815260200190815260200160002054905092915050565b610d33610fd5565b600073ffffffffffffffffffffffffffffffffffffffff168173ffffffffffffffffffffffffffffffffffffffff1603610da55760006040517f1e4fbdf7000000000000000000000000000000000000000000000000000000008152600401610d9c9190611825565b60405180910390fd5b610dae8161105c565b50565b600033905090565b610dc68383836001611122565b505050565b6000610dd78484610ca4565b90507fffffffffffffffffffffffffffffffffffffffffffffffffffffffffffffffff8114610e595781811015610e49578281836040517ffb8f41b2000000000000000000000000000000000000000000000000000000008152600401610e4093929190611c35565b60405180910390fd5b610e5884848484036000611122565b5b50505050565b600073ffffffffffffffffffffffffffffffffffffffff168373ffffffffffffffffffffffffffffffffffffffff1603610ed15760006040517f96c6fd1e000000000000000000000000000000000000000000000000000000008152600401610ec89190611825565b60405180910390fd5b600073ffffffffffffffffffffffffffffffffffffffff168273ffffffffffffffffffffffffffffffffffffffff1603610f435760006040517fec442f05000000000000000000000000000000000000000000000000000000008152600401610f3a9190611825565b60405180910390fd5b610f4e8383836112f9565b505050565b600073ffffffffffffffffffffffffffffffffffffffff168273ffffffffffffffffffffffffffffffffffffffff1603610fc55760006040517fec442f05000000000000000000000000000000000000000000000000000000008152600401610fbc9190611825565b60405180910390fd5b610fd1600083836112f9565b5050565b610fdd610db1565b73ffffffffffffffffffffffffffffffffffffffff16610ffb61084f565b73ffffffffffffffffffffffffffffffffffffffff161461105a5761101e610db1565b6040517f118cdaa70000000000000000000000000000000000000000000000000000000081526004016110519190611825565b60405180910390fd5b565b6000600560009054906101000a900473ffffffffffffffffffffffffffffffffffffffff16905081600560006101000a81548173ffffffffffffffffffffffffffffffffffffffff021916908373ffffffffffffffffffffffffffffffffffffffff1602179055508173ffffffffffffffffffffffffffffffffffffffff168173ffffffffffffffffffffffffffffffffffffffff167f8be0079c531659141344cd1fd0a4f28419497f9722a3daafe3b4186f6b6457e060405160405180910390a35050565b600073ffffffffffffffffffffffffffffffffffffffff168473ffffffffffffffffffffffffffffffffffffffff16036111945760006040517fe602df0500000000000000000000000000000000000000000000000000000000815260040161118b9190611825565b60405180910390fd5b600073ffffffffffffffffffffffffffffffffffffffff168373ffffffffffffffffffffffffffffffffffffffff16036112065760006040517f94280d620000000000000000000000000000000000000000000000000000000081526004016111fd9190611825565b60405180910390fd5b81600160008673ffffffffffffffffffffffffffffffffffffffff1673ffffffffffffffffffffffffffffffffffffffff16815260200190815260200160002060008573ffffffffffffffffffffffffffffffffffffffff1673ffffffffffffffffffffffffffffffffffffffff1681526020019081526020016000208190555080156112f3578273ffffffffffffffffffffffffffffffffffffffff168473ffffffffffffffffffffffffffffffffffffffff167f8c5be1e5ebec7d5bd14f71427d1e84f3dd0314c0f7b2291e5b200ac8c7c3b925846040516112ea9190611679565b60405180910390a35b50505050565b600073ffffffffffffffffffffffffffffffffffffffff168373ffffffffffffffffffffffffffffffffffffffff160361134b57806002600082825461133f9190611b2b565b9250508190555061141e565b60008060008573ffffffffffffffffffffffffffffffffffffffff1673ffffffffffffffffffffffffffffffffffffffff168152602001908152602001600020549050818110156113d7578381836040517fe450d38c0000000000000000000000000000000000000000000000000000000081526004016113ce93929190611c35565b60405180910390fd5b8181036000808673ffffffffffffffffffffffffffffffffffffffff1673ffffffffffffffffffffffffffffffffffffffff16815260200190815260200160002081905550505b600073ffffffffffffffffffffffffffffffffffffffff168273ffffffffffffffffffffffffffffffffffffffff160361146757806002600082825403925050819055506114b4565b806000808473ffffffffffffffffffffffffffffffffffffffff1673ffffffffffffffffffffffffffffffffffffffff168152602001908152602001600020600082825401925050819055505b8173ffffffffffffffffffffffffffffffffffffffff168373ffffffffffffffffffffffffffffffffffffffff167fddf252ad1be2c89b69c2b068fc378daa952ba7f163c4a11628f55a4df523b3ef836040516115119190611679565b60405180910390a3505050565b600081519050919050565b600082825260208201905092915050565b60005b8381101561155857808201518184015260208101905061153d565b60008484015250505050565b6000601f19601f8301169050919050565b60006115808261151e565b61158a8185611529565b935061159a81856020860161153a565b6115a381611564565b840191505092915050565b600060208201905081810360008301526115c88184611575565b905092915050565b600080fd5b600073ffffffffffffffffffffffffffffffffffffffff82169050919050565b6000611600826115d5565b9050919050565b611610816115f5565b811461161b57600080fd5b50565b60008135905061162d81611607565b92915050565b600060208284031215611649576116486115d0565b5b60006116578482850161161e565b91505092915050565b6000819050919050565b61167381611660565b82525050565b600060208201905061168e600083018461166a565b92915050565b61169d81611660565b81146116a857600080fd5b50565b6000813590506116ba81611694565b92915050565b600080604083850312156116d7576116d66115d0565b5b60006116e58582860161161e565b92505060206116f6858286016116ab565b9150509250929050565b60008115159050919050565b61171581611700565b82525050565b6000602082019050611730600083018461170c565b92915050565b600060408201905061174b600083018561166a565b611758602083018461166a565b9392505050565b600080600060608486031215611778576117776115d0565b5b60006117868682870161161e565b93505060206117978682870161161e565b92505060406117a8868287016116ab565b9150509250925092565b600060ff82169050919050565b6117c8816117b2565b82525050565b60006020820190506117e360008301846117bf565b92915050565b6000602082840312156117ff576117fe6115d0565b5b600061180d848285016116ab565b91505092915050565b61181f816115f5565b82525050565b600060208201905061183a6000830184611816565b92915050565b61184981611700565b811461185457600080fd5b50565b60008135905061186681611840565b92915050565b60008060408385031215611883576118826115d0565b5b60006118918582860161161e565b92505060206118a285828601611857565b9150509250929050565b600080604083850312156118c3576118c26115d0565b5b60006118d18582860161161e565b92505060206118e28582860161161e565b9150509250929050565b7f4e487b7100000000000000000000000000000000000000000000000000000000600052602260045260246000fd5b6000600282049050600182168061193357607f821691505b602082108103611946576119456118ec565b5b50919050565b7f4e6f7420617574686f72697a656420746f206d696e7400000000000000000000600082015250565b6000611982601683611529565b915061198d8261194c565b602082019050919050565b600060208201905081810360008301526119b181611975565b9050919050565b7f496e73756666696369656e742062616c616e636520746f207374616b65000000600082015250565b60006119ee601d83611529565b91506119f9826119b8565b602082019050919050565b60006020820190508181036000830152611a1d816119e1565b9050919050565b7f416c7265616479207374616b696e670000000000000000000000000000000000600082015250565b6000611a5a600f83611529565b9150611a6582611a24565b602082019050919050565b60006020820190508181036000830152611a8981611a4d565b9050919050565b7f4e6f20616374697665207374616b650000000000000000000000000000000000600082015250565b6000611ac6600f83611529565b9150611ad182611a90565b602082019050919050565b60006020820190508181036000830152611af581611ab9565b9050919050565b7f4e487b7100000000000000000000000000000000000000000000000000000000600052601160045260246000fd5b6000611b3682611660565b9150611b4183611660565b9250828201905080821115611b5957611b58611afc565b5b92915050565b6000611b6a82611660565b9150611b7583611660565b9250828203905081811115611b8d57611b8c611afc565b5b92915050565b6000611b9e82611660565b9150611ba983611660565b9250828202611bb781611660565b91508282048414831517611bce57611bcd611afc565b5b5092915050565b7f4e487b7100000000000000000000000000000000000000000000000000000000600052601260045260246000fd5b6000611c0f82611660565b9150611c1a83611660565b925082611c2a57611c29611bd5565b5b828204905092915050565b6000606082019050611c4a6000830186611816565b611c57602083018561166a565b611c64604083018461166a565b94935050505056fea26469706673582212201db6a4ad5621a1d6d9fb0f088f76d4f19ed7cff7f12915465086f9a1b1e05c8264736f6c634300081b0033",
  "linkReferences": {},
  "deployedLinkReferences": {}
}