{
  "_format": "hh-sol-artifact-1",
  "contractName": "EcoToken",
  "sourceName": "contracts/EcoToken.sol",
  "abi": [
    {
      "inputs": [],
      "stateMutability": "nonpayable",
      "type": "constructor"
    },
    {
      "anonymous": false,
      "inputs": [
        {
          "indexed": true,
          "internalType": "address",
          "name": "owner",
          "type": "address"
        },
        {
          "indexed": true,
          "internalType": "address",
          "name": "spender",
          "type": "address"
        },
        {
          "indexed": false,
          "internalType": "uint256",
          "name": "value",
          "type": "uint256"
        }
      ],
      "name": "Approval",
      "type": "event"
    },
    {
      "anonymous": false,
      "inputs": [
        {
          "indexed": true,
          "internalType": "address",
          "name": "minter",
          "type": "address"
        },
        {
          "indexed": false,
          "internalType": "bool",
          "name": "status",
          "type": "bool"
        }
      ],
      "name": "MinterApproved",
      "type": "event"
    },
    {
      "anonymous": false,
      "inputs": [
        {
          "indexed": true,
          "internalType": "address",
          "name": "previousOwner",
          "type": "address"
        },
        {
          "indexed": true,
          "internalType": "address",
          "name": "newOwner",
          "type": "address"
        }
      ],
      "name": "OwnershipTransferred",
      "type": "event"
    },
    {
      "anonymous": false,
      "inputs": [
        {
          "indexed": true,
          "internalType": "address",
          "name": "user",
          "type": "address"
        },
        {
          "indexed": false,
          "internalType": "uint256",
          "name": "amount",
          "type": "uint256"
        }
      ],
      "name": "TokensStaked",
      "type": "event"
    },
    {
      "anonymous": false,
      "inputs": [
        {
          "indexed": true,
          "internalType": "address",
          "name": "user",
          "type": "address"
        },
        {
          "indexed": false,
          "internalType": "uint256",
          "name": "amount",
          "type": "uint256"
        },
        {
          "indexed": false,
          "internalType": "uint256",
          "name": "reward",
          "type": "uint256"
        }
      ],
      "name": "TokensUnstaked",
      "type": "event"
    },
    {
      "anonymous": false,
      "inputs": [
        {
          "indexed": true,
          "internalType": "address",
          "name": "from",
          "type": "address"
        },
        {
          "indexed": true,
          "internalType": "address",
          "name": "to",
          "type": "address"
        },
        {
          "indexed": false,
          "internalType": "uint256",
          "name": "value",
          "type": "uint256"
        }
      ],
      "name": "Transfer",
      "type": "event"
    },
    {
      "inputs": [
        {
          "internalType": "address",
          "name": "owner",
          "type": "address"
        },
        {
          "internalType": "address",
          "name": "spender",
          "type": "address"
        }
      ],
      "name": "allowance",
      "outputs": [
        {
          "internalType": "uint256",
          "name": "",
          "type": "uint256"
        }
      ],
      "stateMutability": "view",
      "type": "function"
    },
    {
      "inputs": [
        {
          "internalType": "address",
          "name": "spender",
          "type": "address"
        },
        {
          "internalType": "uint256",
          "name": "amount",
          "type": "uint256"
        }
      ],
      "name": "approve",
      "outputs": [
        {
          "internalType": "bool",
          "name": "",
          "type": "bool"
        }
      ],
      "stateMutability": "nonpayable",
      "type": "function"
    },
    {
      "inputs": [
        {
          "internalType": "address",
          "name": "",
          "type": "address"
        }
      ],
      "name": "approvedMinters",
      "outputs": [
        {
          "internalType": "bool",
          "name": "",
          "type": "bool"
        }
      ],
      "stateMutability": "view",
      "type": "function"
    },
    {
      "inputs": [
        {
          "internalType": "address",
          "name": "account",
          "type": "address"
        }
      ],
      "name": "balanceOf",
      "outputs": [
        {
          "internalType": "uint256",
          "name": "",
          "type": "uint256"
        }
      ],
      "stateMutability": "view",
      "type": "function"
    },
    {
      "inputs": [
        {
          "internalType": "address",
          "name": "user",
          "type": "address"
        }
      ],
      "name": "calculateReward",
      "outputs": [
        {
          "internalType": "uint256",
          "name": "",
          "type": "uint256"
        }
      ],
      "stateMutability": "view",
      "type": "function"
    },
    {
      "inputs": [],
      "name": "decimals",
      "outputs": [
        {
          "internalType": "uint8",
          "name": "",
          "type": "uint8"
        }
      ],
      "stateMutability": "view",
      "type": "function"
    },
    {
      "inputs": [
        {
          "internalType": "address",
          "name": "spender",
          "type": "address"
        },
        {
          "internalType": "uint256",
          "name": "subtractedValue",
          "type": "uint256"
        }
      ],
      "name": "decreaseAllowance",
      "outputs": [
        {
          "internalType": "bool",
          "name": "",
          "type": "bool"
        }
      ],
      "stateMutability": "nonpayable",
      "type": "function"
    },
    {
      "inputs": [
        {
          "internalType": "address",
          "name": "spender",
          "type": "address"
        },
        {
          "internalType": "uint256",
          "name": "addedValue",
          "type": "uint256"
        }
      ],
      "name": "increaseAllowance",
      "outputs": [
        {
          "internalType": "bool",
          "name": "",
          "type": "bool"
        }
      ],
      "stateMutability": "nonpayable",
      "type": "function"
    },
    {
      "inputs": [
        {
          "internalType": "address",
          "name": "to",
          "type": "address"
        },
        {
          "internalType": "uint256",
          "name": "amount",
          "type": "uint256"
        }
      ],
      "name": "mint",
      "outputs": [],
      "stateMutability": "nonpayable",
      "type": "function"
    },
    {
      "inputs": [],
      "name": "name",
      "outputs": [
        {
          "internalType": "string",
          "name": "",
          "type": "string"
        }
      ],
      "stateMutability": "view",
      "type": "function"
    },
    {
      "inputs": [],
      "name": "owner",
      "outputs": [
        {
          "internalType": "address",
          "name": "",
          "type": "address"
        }
      ],
      "stateMutability": "view",
      "type": "function"
    },
    {
      "inputs": [],
      "name": "renounceOwnership",
      "outputs": [],
      "stateMutability": "nonpayable",
      "type": "function"
    },
    {
      "inputs": [],
      "name": "rewardRate",
      "outputs": [
        {
          "internalType": "uint256",
          "name": "",
          "type": "uint256"
        }
      ],
      "stateMutability": "view",
      "type": "function"
    },
    {
      "inputs": [
        {
          "internalType": "address",
          "name": "",
          "type": "address"
        }
      ],
      "name": "rewards",
      "outputs": [
        {
          "internalType": "uint256",
          "name": "",
          "type": "uint256"
        }
      ],
      "stateMutability": "view",
      "type": "function"
    },
    {
      "inputs": [
        {
          "internalType": "address",
          "name": "minter",
          "type": "address"
        },
        {
          "internalType": "bool",
          "name": "canMint",
          "type": "bool"
        }
      ],
      "name": "setMinter",
      "outputs": [],
      "stateMutability": "nonpayable",
      "type": "function"
    },
    {
      "inputs": [
        {
          "internalType": "uint256",
          "name": "newRate",
          "type": "uint256"
        }
      ],
      "name": "setRewardRate",
      "outputs": [],
      "stateMutability": "nonpayable",
      "type": "function"
    },
    {
      "inputs": [
        {
          "internalType": "uint256",
          "name": "amount",
          "type": "uint256"
        }
      ],
      "name": "stakeTokens",
      "outputs": [],
      "stateMutability": "nonpayable",
      "type": "function"
    },
    {
      "inputs": [
        {
          "internalType": "address",
          "name": "",
          "type": "address"
        }
      ],
      "name": "stakes",
      "outputs": [
        {
          "internalType": "uint256",
          "name": "amount",
          "type": "uint256"
        },
        {
          "internalType": "uint256",
          "name": "startTime",
          "type": "uint256"
        }
      ],
      "stateMutability": "view",
      "type": "function"
    },
    {
      "inputs": [],
      "name": "symbol",
      "outputs": [
        {
          "internalType": "string",
          "name": "",
          "type": "string"
        }
      ],
      "stateMutability": "view",
      "type": "function"
    },
    {
      "inputs": [],
      "name": "totalSupply",
      "outputs": [
        {
          "internalType": "uint256",
          "name": "",
          "type": "uint256"
        }
      ],
      "stateMutability": "view",
      "type": "function"
    },
    {
      "inputs": [
        {
          "internalType": "address",
          "name": "to",
          "type": "address"
        },
        {
          "internalType": "uint256",
          "name": "amount",
          "type": "uint256"
        }
      ],
      "name": "transfer",
      "outputs": [
        {
          "internalType": "bool",
          "name": "",
          "type": "bool"
        }
      ],
      "stateMutability": "nonpayable",
      "type": "function"
    },
    {
      "inputs": [
        {
          "internalType": "address",
          "name": "from",
          "type": "address"
        },
        {
          "internalType": "address",
          "name": "to",
          "type": "address"
        },
        {
          "internalType": "uint256",
          "name": "amount",
          "type": "uint256"
        }
      ],
      "name": "transferFrom",
      "outputs": [
        {
          "internalType": "bool",
          "name": "",
          "type": "bool"
        }
      ],
      "stateMutability": "nonpayable",
      "type": "function"
    },
    {
      "inputs": [
        {
          "internalType": "address",
          "name": "newOwner",
          "type": "address"
        }
      ],
      "name": "transferOwnership",
      "outputs": [],
      "stateMutability": "nonpayable",
      "type": "function"
    },
    {
      "inputs": [],
      "name": "unstakeTokens",
      "outputs": [],
      "stateMutability": "nonpayable",
      "type": "function"
    }
  ],
  "bytecode": "0x6080604052600a60065534801561001557600080fd5b506040518060400160405280600881526020017f45636f546f6b656e0000000000000000000000000000000000000000000000008152506040518060400160405280600381526020017f45434f00000000000000000000000000000000000000000000000000000000008152508160039081610091919061058f565b5080600490816100a1919061058f565b5050506100c06100b56100fc60201b60201c565b61010460201b60201c565b6100f7336100d26101ca60201b60201c565b600a6100de91906107d0565b620f42406100ec919061081b565b6101d360201b60201c565b610938565b600033905090565b6000600560009054906101000a900473ffffffffffffffffffffffffffffffffffffffff16905081600560006101000a81548173ffffffffffffffffffffffffffffffffffffffff021916908373ffffffffffffffffffffffffffffffffffffffff1602179055508173ffffffffffffffffffffffffffffffffffffffff168173ffffffffffffffffffffffffffffffffffffffff167f8be0079c531659141344cd1fd0a4f28419497f9722a3daafe3b4186f6b6457e060405160405180910390a35050565b60006012905090565b600073ffffffffffffffffffffffffffffffffffffffff168273ffffffffffffffffffffffffffffffffffffffff1603610242576040517f08c379a0000000000000000000000000000000000000000000000000000000008152600401610239906108ba565b60405180910390fd5b6102546000838361033560201b60201c565b806002600082825461026691906108da565b92505081905550806000808473ffffffffffffffffffffffffffffffffffffffff1673ffffffffffffffffffffffffffffffffffffffff168152602001908152602001600020600082825401925050819055508173ffffffffffffffffffffffffffffffffffffffff16600073ffffffffffffffffffffffffffffffffffffffff167fddf252ad1be2c89b69c2b068fc378daa952ba7f163c4a11628f55a4df523b3ef83604051610317919061091d565b60405180910390a36103316000838361033a60201b60201c565b5050565b505050565b505050565b600081519050919050565b7f4e487b7100000000000000000000000000000000000000000000000000000000600052604160045260246000fd5b7f4e487b7100000000000000000000000000000000000000000000000000000000600052602260045260246000fd5b600060028204905060018216806103c057607f821691505b6020821081036103d3576103d2610379565b5b50919050565b60008190508160005260206000209050919050565b60006020601f8301049050919050565b600082821b905092915050565b60006008830261043b7fffffffffffffffffffffffffffffffffffffffffffffffffffffffffffffffff826103fe565b61044586836103fe565b95508019841693508086168417925050509392505050565b6000819050919050565b6000819050919050565b600061048c6104876104828461045d565b610467565b61045d565b9050919050565b6000819050919050565b6104a683610471565b6104ba6104b282610493565b84845461040b565b825550505050565b600090565b6104cf6104c2565b6104da81848461049d565b505050565b5b818110156104fe576104f36000826104c7565b6001810190506104e0565b5050565b601f82111561054357610514816103d9565b61051d846103ee565b8101602085101561052c578190505b610540610538856103ee565b8301826104df565b50505b505050565b600082821c905092915050565b600061056660001984600802610548565b1980831691505092915050565b600061057f8383610555565b9150826002028217905092915050565b6105988261033f565b67ffffffffffffffff8111156105b1576105b061034a565b5b6105bb82546103a8565b6105c6828285610502565b600060209050601f8311600181146105f957600084156105e7578287015190505b6105f18582610573565b865550610659565b601f198416610607866103d9565b60005b8281101561062f5784890151825560018201915060208501945060208101905061060a565b8683101561064c5784890151610648601f891682610555565b8355505b6001600288020188555050505b505050505050565b7f4e487b7100000000000000000000000000000000000000000000000000000000600052601160045260246000fd5b60008160011c9050919050565b6000808291508390505b60018511156106e7578086048111156106c3576106c2610661565b5b60018516156106d25780820291505b80810290506106e085610690565b94506106a7565b94509492505050565b60008261070057600190506107bc565b8161070e57600090506107bc565b8160018114610724576002811461072e5761075d565b60019150506107bc565b60ff8411156107405761073f610661565b5b8360020a91508482111561075757610756610661565b5b506107bc565b5060208310610133831016604e8410600b84101617156107925782820a90508381111561078d5761078c610661565b5b6107bc565b61079f848484600161069d565b925090508184048111156107b6576107b5610661565b5b81810290505b9392505050565b600060ff82169050919050565b60006107db8261045d565b91506107e6836107c3565b92506108137fffffffffffffffffffffffffffffffffffffffffffffffffffffffffffffffff84846106f0565b905092915050565b60006108268261045d565b91506108318361045d565b925082820261083f8161045d565b9150828204841483151761085657610855610661565b5b5092915050565b600082825260208201905092915050565b7f45524332303a206d696e7420746f20746865207a65726f206164647265737300600082015250565b60006108a4601f8361085d565b91506108af8261086e565b602082019050919050565b600060208201905081810360008301526108d381610897565b9050919050565b60006108e58261045d565b91506108f08361045d565b925082820190508082111561090857610907610661565b5b92915050565b6109178161045d565b82525050565b6000602082019050610932600083018461090e565b92915050565b6122d8806109476000396000f3fe608060405234801561001057600080fd5b50600436106101585760003560e01c80637b0a47ee116100c3578063a8b5e6ea1161007c578063a8b5e6ea146103ca578063a9059cbb146103fa578063cf456ae71461042a578063d82e396214610446578063dd62ed3e14610476578063f2fde38b146104a657610158565b80637b0a47ee1461031a5780638da5cb5b1461033857806395d89b41146103565780639e447fc614610374578063a457c2d714610390578063a5ce413b146103c057610158565b8063313ce56711610115578063313ce5671461025a578063395093511461027857806340c10f19146102a857806370a08231146102c4578063715018a6146102f45780637547c7a3146102fe57610158565b806306fdde031461015d5780630700037d1461017b578063095ea7b3146101ab57806316934fc4146101db57806318160ddd1461020c57806323b872dd1461022a575b600080fd5b6101656104c2565b60405161017291906116d9565b60405180910390f35b6101956004803603810190610190919061175e565b610554565b6040516101a291906117a4565b60405180910390f35b6101c560048036038101906101c091906117eb565b61056c565b6040516101d29190611846565b60405180910390f35b6101f560048036038101906101f0919061175e565b61058f565b604051610203929190611861565b60405180910390f35b6102146105b3565b60405161022191906117a4565b60405180910390f35b610244600480360381019061023f919061188a565b6105bd565b6040516102519190611846565b60405180910390f35b6102626105ec565b60405161026f91906118f9565b60405180910390f35b610292600480360381019061028d91906117eb565b6105f5565b60405161029f9190611846565b60405180910390f35b6102c260048036038101906102bd91906117eb565b61062c565b005b6102de60048036038101906102d9919061175e565b610703565b6040516102eb91906117a4565b60405180910390f35b6102fc61074b565b005b61031860048036038101906103139190611914565b61075f565b005b6103226108f6565b60405161032f91906117a4565b60405180910390f35b6103406108fc565b60405161034d9190611950565b60405180910390f35b61035e610926565b60405161036b91906116d9565b60405180910390f35b61038e60048036038101906103899190611914565b6109b8565b005b6103aa60048036038101906103a591906117eb565b6109ca565b6040516103b79190611846565b60405180910390f35b6103c8610a41565b005b6103e460048036038101906103df919061175e565b610bf9565b6040516103f19190611846565b60405180910390f35b610414600480360381019061040f91906117eb565b610c19565b6040516104219190611846565b60405180910390f35b610444600480360381019061043f9190611997565b610c3c565b005b610460600480360381019061045b919061175e565b610ced565b60405161046d91906117a4565b60405180910390f35b610490600480360381019061048b91906119d7565b610dc8565b60405161049d91906117a4565b60405180910390f35b6104c060048036038101906104bb919061175e565b610e4f565b005b6060600380546104d190611a46565b80601f01602080910402602001604051908101604052809291908181526020018280546104fd90611a46565b801561054a5780601f1061051f5761010080835404028352916020019161054a565b820191906000526020600020905b81548152906001019060200180831161052d57829003601f168201915b5050505050905090565b60086020528060005260406000206000915090505481565b600080610577610ed2565b9050610584818585610eda565b600191505092915050565b60076020528060005260406000206000915090508060000154908060010154905082565b6000600254905090565b6000806105c8610ed2565b90506105d58582856110a3565b6105e085858561112f565b60019150509392505050565b60006012905090565b600080610600610ed2565b90506106218185856106128589610dc8565b61061c9190611aa6565b610eda565b600191505092915050565b600960003373ffffffffffffffffffffffffffffffffffffffff1673ffffffffffffffffffffffffffffffffffffffff16815260200190815260200160002060009054906101000a900460ff16806106b657506106876108fc565b73ffffffffffffffffffffffffffffffffffffffff163373ffffffffffffffffffffffffffffffffffffffff16145b6106f5576040517f08c379a00000000000000000000000000000000000000000000000000000000081526004016106ec90611b26565b60405180910390fd5b6106ff82826113a5565b5050565b60008060008373ffffffffffffffffffffffffffffffffffffffff1673ffffffffffffffffffffffffffffffffffffffff168152602001908152602001600020549050919050565b6107536114fb565b61075d6000611579565b565b8061076933610703565b10156107aa576040517f08c379a00000000000000000000000000000000000000000000000000000000081526004016107a190611b92565b60405180910390fd5b6000600760003373ffffffffffffffffffffffffffffffffffffffff1673ffffffffffffffffffffffffffffffffffffffff168152602001908152602001600020600001541461082f576040517f08c379a000000000000000000000000000000000000000000000000000000000815260040161082690611bfe565b60405180910390fd5b61083a33308361112f565b604051806040016040528082815260200142815250600760003373ffffffffffffffffffffffffffffffffffffffff1673ffffffffffffffffffffffffffffffffffffffff16815260200190815260200160002060008201518160000155602082015181600101559050503373ffffffffffffffffffffffffffffffffffffffff167fb539ca1e5c8d398ddf1c41c30166f33404941683be4683319b57669a93dad4ef826040516108eb91906117a4565b60405180910390a250565b60065481565b6000600560009054906101000a900473ffffffffffffffffffffffffffffffffffffffff16905090565b60606004805461093590611a46565b80601f016020809104026020016040519081016040528092919081815260200182805461096190611a46565b80156109ae5780601f10610983576101008083540402835291602001916109ae565b820191906000526020600020905b81548152906001019060200180831161099157829003601f168201915b5050505050905090565b6109c06114fb565b8060068190555050565b6000806109d5610ed2565b905060006109e38286610dc8565b905083811015610a28576040517f08c379a0000000000000000000000000000000000000000000000000000000008152600401610a1f90611c90565b60405180910390fd5b610a358286868403610eda565b60019250505092915050565b6000600760003373ffffffffffffffffffffffffffffffffffffffff1673ffffffffffffffffffffffffffffffffffffffff1681526020019081526020016000206040518060400160405290816000820154815260200160018201548152505090506000816000015111610aea576040517f08c379a0000000000000000000000000000000000000000000000000000000008152600401610ae190611cfc565b60405180910390fd5b6000610af533610ced565b90506000600760003373ffffffffffffffffffffffffffffffffffffffff1673ffffffffffffffffffffffffffffffffffffffff168152602001908152602001600020600001819055506000600760003373ffffffffffffffffffffffffffffffffffffffff1673ffffffffffffffffffffffffffffffffffffffff16815260200190815260200160002060010181905550610ba13033838560000151610b9c9190611aa6565b61112f565b3373ffffffffffffffffffffffffffffffffffffffff167f6f2d3e000c89d37446b7c0374c0125068ff316d1e3ee302336478a8cd03c2336836000015183604051610bed929190611861565b60405180910390a25050565b60096020528060005260406000206000915054906101000a900460ff1681565b600080610c24610ed2565b9050610c3181858561112f565b600191505092915050565b610c446114fb565b80600960008473ffffffffffffffffffffffffffffffffffffffff1673ffffffffffffffffffffffffffffffffffffffff16815260200190815260200160002060006101000a81548160ff0219169083151502179055508173ffffffffffffffffffffffffffffffffffffffff167f364446b390bfac30fd59f2be7bea9aa4ee2d5a29c77609e07cc302908878fd7b82604051610ce19190611846565b60405180910390a25050565b600080600760008473ffffffffffffffffffffffffffffffffffffffff1673ffffffffffffffffffffffffffffffffffffffff1681526020019081526020016000206040518060400160405290816000820154815260200160018201548152505090506000816000015103610d66576000915050610dc3565b6000816020015142610d789190611d1c565b9050600060646006548460000151610d909190611d50565b610d9a9190611dc1565b905060006301e133808383610daf9190611d50565b610db99190611dc1565b9050809450505050505b919050565b6000600160008473ffffffffffffffffffffffffffffffffffffffff1673ffffffffffffffffffffffffffffffffffffffff16815260200190815260200160002060008373ffffffffffffffffffffffffffffffffffffffff1673ffffffffffffffffffffffffffffffffffffffff16815260200190815260200160002054905092915050565b610e576114fb565b600073ffffffffffffffffffffffffffffffffffffffff168173ffffffffffffffffffffffffffffffffffffffff1603610ec6576040517f08c379a0000000000000000000000000000000000000000000000000000000008152600401610ebd90611e64565b60405180910390fd5b610ecf81611579565b50565b600033905090565b600073ffffffffffffffffffffffffffffffffffffffff168373ffffffffffffffffffffffffffffffffffffffff1603610f49576040517f08c379a0000000000000000000000000000000000000000000000000000000008152600401610f4090611ef6565b60405180910390fd5b600073ffffffffffffffffffffffffffffffffffffffff168273ffffffffffffffffffffffffffffffffffffffff1603610fb8576040517f08c379a0000000000000000000000000000000000000000000000000000000008152600401610faf90611f88565b60405180910390fd5b80600160008573ffffffffffffffffffffffffffffffffffffffff1673ffffffffffffffffffffffffffffffffffffffff16815260200190815260200160002060008473ffffffffffffffffffffffffffffffffffffffff1673ffffffffffffffffffffffffffffffffffffffff168152602001908152602001600020819055508173ffffffffffffffffffffffffffffffffffffffff168373ffffffffffffffffffffffffffffffffffffffff167f8c5be1e5ebec7d5bd14f71427d1e84f3dd0314c0f7b2291e5b200ac8c7c3b9258360405161109691906117a4565b60405180910390a3505050565b60006110af8484610dc8565b90507fffffffffffffffffffffffffffffffffffffffffffffffffffffffffffffffff8114611129578181101561111b576040517f08c379a000000000000000000000000000000000000000000000000000000000815260040161111290611ff4565b60405180910390fd5b6111288484848403610eda565b5b50505050565b600073ffffffffffffffffffffffffffffffffffffffff168373ffffffffffffffffffffffffffffffffffffffff160361119e576040517f08c379a000000000000000000000000000000000000000000000000000000000815260040161119590612086565b60405180910390fd5b600073ffffffffffffffffffffffffffffffffffffffff168273ffffffffffffffffffffffffffffffffffffffff160361120d576040517f08c379a000000000000000000000000000000000000000000000000000000000815260040161120490612118565b60405180910390fd5b61121883838361163f565b60008060008573ffffffffffffffffffffffffffffffffffffffff1673ffffffffffffffffffffffffffffffffffffffff1681526020019081526020016000205490508181101561129e576040517f08c379a0000000000000000000000000000000000000000000000000000000008152600401611295906121aa565b60405180910390fd5b8181036000808673ffffffffffffffffffffffffffffffffffffffff1673ffffffffffffffffffffffffffffffffffffffff16815260200190815260200160002081905550816000808573ffffffffffffffffffffffffffffffffffffffff1673ffffffffffffffffffffffffffffffffffffffff168152602001908152602001600020600082825401925050819055508273ffffffffffffffffffffffffffffffffffffffff168473ffffffffffffffffffffffffffffffffffffffff167fddf252ad1be2c89b69c2b068fc378daa952ba7f163c4a11628f55a4df523b3ef8460405161138c91906117a4565b60405180910390a361139f848484611644565b50505050565b600073ffffffffffffffffffffffffffffffffffffffff168273ffffffffffffffffffffffffffffffffffffffff1603611414576040517f08c379a000000000000000000000000000000000000000000000000000000000815260040161140b90612216565b60405180910390fd5b6114206000838361163f565b80600260008282546114329190611aa6565b92505081905550806000808473ffffffffffffffffffffffffffffffffffffffff1673ffffffffffffffffffffffffffffffffffffffff168152602001908152602001600020600082825401925050819055508173ffffffffffffffffffffffffffffffffffffffff16600073ffffffffffffffffffffffffffffffffffffffff167fddf252ad1be2c89b69c2b068fc378daa952ba7f163c4a11628f55a4df523b3ef836040516114e391906117a4565b60405180910390a36114f760008383611644565b5050565b611503610ed2565b73ffffffffffffffffffffffffffffffffffffffff166115216108fc565b73ffffffffffffffffffffffffffffffffffffffff1614611577576040517f08c379a000000000000000000000000000000000000000000000000000000000815260040161156e90612282565b60405180910390fd5b565b6000600560009054906101000a900473ffffffffffffffffffffffffffffffffffffffff16905081600560006101000a81548173ffffffffffffffffffffffffffffffffffffffff021916908373ffffffffffffffffffffffffffffffffffffffff1602179055508173ffffffffffffffffffffffffffffffffffffffff168173ffffffffffffffffffffffffffffffffffffffff167f8be0079c531659141344cd1fd0a4f28419497f9722a3daafe3b4186f6b6457e060405160405180910390a35050565b505050565b505050565b600081519050919050565b600082825260208201905092915050565b60005b83811015611683578082015181840152602081019050611668565b60008484015250505050565b6000601f19601f8301169050919050565b60006116ab82611649565b6116b58185611654565b93506116c5818560208601611665565b6116ce8161168f565b840191505092915050565b600060208201905081810360008301526116f381846116a0565b905092915050565b600080fd5b600073ffffffffffffffffffffffffffffffffffffffff82169050919050565b600061172b82611700565b9050919050565b61173b81611720565b811461174657600080fd5b50565b60008135905061175881611732565b92915050565b600060208284031215611774576117736116fb565b5b600061178284828501611749565b91505092915050565b6000819050919050565b61179e8161178b565b82525050565b60006020820190506117b96000830184611795565b92915050565b6117c88161178b565b81146117d357600080fd5b50565b6000813590506117e5816117bf565b92915050565b60008060408385031215611802576118016116fb565b5b600061181085828601611749565b9250506020611821858286016117d6565b9150509250929050565b60008115159050919050565b6118408161182b565b82525050565b600060208201905061185b6000830184611837565b92915050565b60006040820190506118766000830185611795565b6118836020830184611795565b9392505050565b6000806000606084860312156118a3576118a26116fb565b5b60006118b186828701611749565b93505060206118c286828701611749565b92505060406118d3868287016117d6565b9150509250925092565b600060ff82169050919050565b6118f3816118dd565b82525050565b600060208201905061190e60008301846118ea565b92915050565b60006020828403121561192a576119296116fb565b5b6000611938848285016117d6565b91505092915050565b61194a81611720565b82525050565b60006020820190506119656000830184611941565b92915050565b6119748161182b565b811461197f57600080fd5b50565b6000813590506119918161196b565b92915050565b600080604083850312156119ae576119ad6116fb565b5b60006119bc85828601611749565b92505060206119cd85828601611982565b9150509250929050565b600080604083850312156119ee576119ed6116fb565b5b60006119fc85828601611749565b9250506020611a0d85828601611749565b9150509250929050565b7f4e487b7100000000000000000000000000000000000000000000000000000000600052602260045260246000fd5b60006002820490506001821680611a5e57607f821691505b602082108103611a7157611a70611a17565b5b50919050565b7f4e487b7100000000000000000000000000000000000000000000000000000000600052601160045260246000fd5b6000611ab18261178b565b9150611abc8361178b565b9250828201905080821115611ad457611ad3611a77565b5b92915050565b7f4e6f7420617574686f72697a656420746f206d696e7400000000000000000000600082015250565b6000611b10601683611654565b9150611b1b82611ada565b602082019050919050565b60006020820190508181036000830152611b3f81611b03565b9050919050565b7f496e73756666696369656e742062616c616e636520746f207374616b65000000600082015250565b6000611b7c601d83611654565b9150611b8782611b46565b602082019050919050565b60006020820190508181036000830152611bab81611b6f565b9050919050565b7f416c7265616479207374616b696e670000000000000000000000000000000000600082015250565b6000611be8600f83611654565b9150611bf382611bb2565b602082019050919050565b60006020820190508181036000830152611c1781611bdb565b9050919050565b7f45524332303a2064656372656173656420616c6c6f77616e63652062656c6f7760008201527f207a65726f000000000000000000000000000000000000000000000000000000602082015250565b6000611c7a602583611654565b9150611c8582611c1e565b604082019050919050565b60006020820190508181036000830152611ca981611c6d565b9050919050565b7f4e6f20616374697665207374616b650000000000000000000000000000000000600082015250565b6000611ce6600f83611654565b9150611cf182611cb0565b602082019050919050565b60006020820190508181036000830152611d1581611cd9565b9050919050565b6000611d278261178b565b9150611d328361178b565b9250828203905081811115611d4a57611d49611a77565b5b92915050565b6000611d5b8261178b565b9150611d668361178b565b9250828202611d748161178b565b91508282048414831517611d8b57611d8a611a77565b5b5092915050565b7f4e487b7100000000000000000000000000000000000000000000000000000000600052601260045260246000fd5b6000611dcc8261178b565b9150611dd78361178b565b925082611de757611de6611d92565b5b828204905092915050565b7f4f776e61626c653a206e6577206f776e657220697320746865207a65726f206160008201527f6464726573730000000000000000000000000000000000000000000000000000602082015250565b6000611e4e602683611654565b9150611e5982611df2565b604082019050919050565b60006020820190508181036000830152611e7d81611e41565b9050919050565b7f45524332303a20617070726f76652066726f6d20746865207a65726f2061646460008201527f7265737300000000000000000000000000000000000000000000000000000000602082015250565b6000611ee0602483611654565b9150611eeb82611e84565b604082019050919050565b60006020820190508181036000830152611f0f81611ed3565b9050919050565b7f45524332303a20617070726f766520746f20746865207a65726f20616464726560008201527f7373000000000000000000000000000000000000000000000000000000000000602082015250565b6000611f72602283611654565b9150611f7d82611f16565b604082019050919050565b60006020820190508181036000830152611fa181611f65565b9050919050565b7f45524332303a20696e73756666696369656e7420616c6c6f77616e6365000000600082015250565b6000611fde601d83611654565b9150611fe982611fa8565b602082019050919050565b6000602082019050818103600083015261200d81611fd1565b9050919050565b7f45524332303a207472616e736665722066726f6d20746865207a65726f20616460008201527f6472657373000000000000000000000000000000000000000000000000000000602082015250565b6000612070602583611654565b915061207b82612014565b604082019050919050565b6000602082019050818103600083015261209f81612063565b9050919050565b7f45524332303a207472616e7366657220746f20746865207a65726f206164647260008201527f6573730000000000000000000000000000000000000000000000000000000000602082015250565b6000612102602383611654565b915061210d826120a6565b604082019050919050565b60006020820190508181036000830152612131816120f5565b9050919050565b7f45524332303a207472616e7366657220616d6f756e742065786365656473206260008201527f616c616e63650000000000000000000000000000000000000000000000000000602082015250565b6000612194602683611654565b915061219f82612138565b604082019050919050565b600060208201905081810360008301526121c381612187565b9050919050565b7f45524332303a206d696e7420746f20746865207a65726f206164647265737300600082015250565b6000612200601f83611654565b915061220b826121ca565b602082019050919050565b6000602082019050818103600083015261222f816121f3565b9050919050565b7f4f776e61626c653a2063616c6c6572206973206e6f7420746865206f776e6572600082015250565b600061226c602083611654565b915061227782612236565b602082019050919050565b6000602082019050818103600083015261229b8161225f565b905091905056fea26469706673582212202d49f2a6f0fa8203a82a9a3fce8b0fbd0ed1d816ba624a945c7cdd6a25dcfc7864736f6c634300081b0033",
  "linkReferences": {},
  "deployedLinkReferences": {}
}