{
  "_format": "hh-sol-artifact-1",
  "contractName": "GreenProject",
  "sourceName": "contracts/GreenProject.sol",
  "abi": [
    {
      "inputs": [
        {
          "internalType": "address",
          "name": "_ecoToken",
          "type": "address"
        },
        {
          "internalType": "address",
          "name": "_adminWallet",
          "type": "address"
        }
      ],
      "stateMutability": "nonpayable",
      "type": "constructor"
    },
    {
      "anonymous": false,
      "inputs": [
        {
          "indexed": true,
          "internalType": "address",
          "name": "donor",
          "type": "address"
        },
        {
          "indexed": false,
          "internalType": "uint256",
          "name": "projectId",
          "type": "uint256"
        },
        {
          "indexed": false,
          "internalType": "uint256",
          "name": "amount",
          "type": "uint256"
        },
        {
          "indexed": false,
          "internalType": "uint256",
          "name": "tokensAwarded",
          "type": "uint256"
        }
      ],
      "name": "DonationMade",
      "type": "event"
    },
    {
      "anonymous": false,
      "inputs": [
        {
          "indexed": false,
          "internalType": "uint256",
          "name": "projectId",
          "type": "uint256"
        },
        {
          "indexed": false,
          "internalType": "uint256",
          "name": "amount",
          "type": "uint256"
        },
        {
          "indexed": false,
          "internalType": "uint256",
          "name": "adminFee",
          "type": "uint256"
        }
      ],
      "name": "FundsWithdrawn",
      "type": "event"
    },
    {
      "anonymous": false,
      "inputs": [
        {
          "indexed": true,
          "internalType": "address",
          "name": "previousOwner",
          "type": "address"
        },
        {
          "indexed": true,
          "internalType": "address",
          "name": "newOwner",
          "type": "address"
        }
      ],
      "name": "OwnershipTransferred",
      "type": "event"
    },
    {
      "anonymous": false,
      "inputs": [
        {
          "indexed": false,
          "internalType": "uint256",
          "name": "projectId",
          "type": "uint256"
        }
      ],
      "name": "ProjectCompleted",
      "type": "event"
    },
    {
      "anonymous": false,
      "inputs": [
        {
          "indexed": false,
          "internalType": "uint256",
          "name": "projectId",
          "type": "uint256"
        },
        {
          "indexed": false,
          "internalType": "string",
          "name": "name",
          "type": "string"
        },
        {
          "indexed": false,
          "internalType": "address",
          "name": "projectOwner",
          "type": "address"
        }
      ],
      "name": "ProjectCreated",
      "type": "event"
    },
    {
      "anonymous": false,
      "inputs": [
        {
          "indexed": false,
          "internalType": "uint256",
          "name": "projectId",
          "type": "uint256"
        },
        {
          "indexed": false,
          "internalType": "uint256",
          "name": "newEndDate",
          "type": "uint256"
        }
      ],
      "name": "ProjectEndDateUpdated",
      "type": "event"
    },
    {
      "inputs": [],
      "name": "adminWallet",
      "outputs": [
        {
          "internalType": "address",
          "name": "",
          "type": "address"
        }
      ],
      "stateMutability": "view",
      "type": "function"
    },
    {
      "inputs": [
        {
          "components": [
            {
              "internalType": "string",
              "name": "name",
              "type": "string"
            },
            {
              "internalType": "string",
              "name": "description",
              "type": "string"
            },
            {
              "internalType": "uint256",
              "name": "totalFundsRequired",
              "type": "uint256"
            },
            {
              "internalType": "string",
              "name": "category",
              "type": "string"
            },
            {
              "internalType": "uint256",
              "name": "startDate",
              "type": "uint256"
            },
            {
              "internalType": "uint256",
              "name": "endDate",
              "type": "uint256"
            },
            {
              "internalType": "string",
              "name": "location",
              "type": "string"
            },
            {
              "internalType": "uint256",
              "name": "minDonation",
              "type": "uint256"
            },
            {
              "internalType": "uint256",
              "name": "maxDonation",
              "type": "uint256"
            },
            {
              "internalType": "string",
              "name": "mediaUrl",
              "type": "string"
            }
          ],
          "internalType": "struct GreenProject.ProjectInput",
          "name": "projectInput",
          "type": "tuple"
        }
      ],
      "name": "createProject",
      "outputs": [],
      "stateMutability": "nonpayable",
      "type": "function"
    },
    {
      "inputs": [
        {
          "internalType": "uint256",
          "name": "projectId",
          "type": "uint256"
        }
      ],
      "name": "donateToProject",
      "outputs": [],
      "stateMutability": "payable",
      "type": "function"
    },
    {
      "inputs": [],
      "name": "ecoToken",
      "outputs": [
        {
          "internalType": "contract EcoToken",
          "name": "",
          "type": "address"
        }
      ],
      "stateMutability": "view",
      "type": "function"
    },
    {
      "inputs": [],
      "name": "getProjects",
      "outputs": [
        {
          "components": [
            {
              "components": [
                {
                  "internalType": "string",
                  "name": "name",
                  "type": "string"
                },
                {
                  "internalType": "string",
                  "name": "description",
                  "type": "string"
                },
                {
                  "internalType": "uint256",
                  "name": "totalFundsRequired",
                  "type": "uint256"
                },
                {
                  "internalType": "uint256",
                  "name": "fundsRaised",
                  "type": "uint256"
                },
                {
                  "internalType": "address payable",
                  "name": "projectOwner",
                  "type": "address"
                },
                {
                  "internalType": "enum GreenProject.Status",
                  "name": "status",
                  "type": "uint8"
                }
              ],
              "internalType": "struct GreenProject.ProjectCore",
              "name": "core",
              "type": "tuple"
            },
            {
              "components": [
                {
                  "internalType": "string",
                  "name": "category",
                  "type": "string"
                },
                {
                  "internalType": "uint256",
                  "name": "startDate",
                  "type": "uint256"
                },
                {
                  "internalType": "uint256",
                  "name": "endDate",
                  "type": "uint256"
                },
                {
                  "internalType": "string",
                  "name": "location",
                  "type": "string"
                },
                {
                  "internalType": "uint256",
                  "name": "minDonation",
                  "type": "uint256"
                },
                {
                  "internalType": "uint256",
                  "name": "maxDonation",
                  "type": "uint256"
                },
                {
                  "internalType": "string",
                  "name": "mediaUrl",
                  "type": "string"
                }
              ],
              "internalType": "struct GreenProject.ProjectDetails",
              "name": "details",
              "type": "tuple"
            }
          ],
          "internalType": "struct GreenProject.Project[]",
          "name": "",
          "type": "tuple[]"
        }
      ],
      "stateMutability": "view",
      "type": "function"
    },
    {
      "inputs": [],
      "name": "owner",
      "outputs": [
        {
          "internalType": "address",
          "name": "",
          "type": "address"
        }
      ],
      "stateMutability": "view",
      "type": "function"
    },
    {
      "inputs": [
        {
          "internalType": "uint256",
          "name": "",
          "type": "uint256"
        }
      ],
      "name": "projects",
      "outputs": [
        {
          "components": [
            {
              "internalType": "string",
              "name": "name",
              "type": "string"
            },
            {
              "internalType": "string",
              "name": "description",
              "type": "string"
            },
            {
              "internalType": "uint256",
              "name": "totalFundsRequired",
              "type": "uint256"
            },
            {
              "internalType": "uint256",
              "name": "fundsRaised",
              "type": "uint256"
            },
            {
              "internalType": "address payable",
              "name": "projectOwner",
              "type": "address"
            },
            {
              "internalType": "enum GreenProject.Status",
              "name": "status",
              "type": "uint8"
            }
          ],
          "internalType": "struct GreenProject.ProjectCore",
          "name": "core",
          "type": "tuple"
        },
        {
          "components": [
            {
              "internalType": "string",
              "name": "category",
              "type": "string"
            },
            {
              "internalType": "uint256",
              "name": "startDate",
              "type": "uint256"
            },
            {
              "internalType": "uint256",
              "name": "endDate",
              "type": "uint256"
            },
            {
              "internalType": "string",
              "name": "location",
              "type": "string"
            },
            {
              "internalType": "uint256",
              "name": "minDonation",
              "type": "uint256"
            },
            {
              "internalType": "uint256",
              "name": "maxDonation",
              "type": "uint256"
            },
            {
              "internalType": "string",
              "name": "mediaUrl",
              "type": "string"
            }
          ],
          "internalType": "struct GreenProject.ProjectDetails",
          "name": "details",
          "type": "tuple"
        }
      ],
      "stateMutability": "view",
      "type": "function"
    },
    {
      "inputs": [],
      "name": "renounceOwnership",
      "outputs": [],
      "stateMutability": "nonpayable",
      "type": "function"
    },
    {
      "inputs": [
        {
          "internalType": "address",
          "name": "newOwner",
          "type": "address"
        }
      ],
      "name": "transferOwnership",
      "outputs": [],
      "stateMutability": "nonpayable",
      "type": "function"
    },
    {
      "inputs": [
        {
          "internalType": "uint256",
          "name": "projectId",
          "type": "uint256"
        },
        {
          "internalType": "uint256",
          "name": "newEndDate",
          "type": "uint256"
        }
      ],
      "name": "updateProjectEndDate",
      "outputs": [],
      "stateMutability": "nonpayable",
      "type": "function"
    },
    {
      "inputs": [
        {
          "internalType": "address",
          "name": "",
          "type": "address"
        },
        {
          "internalType": "uint256",
          "name": "",
          "type": "uint256"
        }
      ],
      "name": "userDonations",
      "outputs": [
        {
          "internalType": "uint256",
          "name": "",
          "type": "uint256"
        }
      ],
      "stateMutability": "view",
      "type": "function"
    },
    {
      "inputs": [
        {
          "internalType": "uint256",
          "name": "projectId",
          "type": "uint256"
        }
      ],
      "name": "withdrawFunds",
      "outputs": [],
      "stateMutability": "nonpayable",
      "type": "function"
    }
  ],
  "bytecode": "0x608060405234801561001057600080fd5b5060405161358238038061358283398181016040528101906100329190610206565b61004e6100436100d760201b60201c565b6100df60201b60201c565b81600160006101000a81548173ffffffffffffffffffffffffffffffffffffffff021916908373ffffffffffffffffffffffffffffffffffffffff16021790555080600460006101000a81548173ffffffffffffffffffffffffffffffffffffffff021916908373ffffffffffffffffffffffffffffffffffffffff1602179055505050610246565b600033905090565b60008060009054906101000a900473ffffffffffffffffffffffffffffffffffffffff169050816000806101000a81548173ffffffffffffffffffffffffffffffffffffffff021916908373ffffffffffffffffffffffffffffffffffffffff1602179055508173ffffffffffffffffffffffffffffffffffffffff168173ffffffffffffffffffffffffffffffffffffffff167f8be0079c531659141344cd1fd0a4f28419497f9722a3daafe3b4186f6b6457e060405160405180910390a35050565b600080fd5b600073ffffffffffffffffffffffffffffffffffffffff82169050919050565b60006101d3826101a8565b9050919050565b6101e3816101c8565b81146101ee57600080fd5b50565b600081519050610200816101da565b92915050565b6000806040838503121561021d5761021c6101a3565b5b600061022b858286016101f1565b925050602061023c858286016101f1565b9150509250929050565b61332d806102556000396000f3fe6080604052600436106100a75760003560e01c8063705d530411610064578063705d5304146101c0578063715018a6146101eb5780638da5cb5b146102025780639ece9a791461022d578063dcc6012814610256578063f2fde38b14610281576100a7565b8063107046bd146100ac578063155dd5ee146100ea5780631a7584cc1461011357806336b19cd71461013c5780634933e6311461016757806356adb06f146101a4575b600080fd5b3480156100b857600080fd5b506100d360048036038101906100ce9190611a28565b6102aa565b6040516100e1929190611ce6565b60405180910390f35b3480156100f657600080fd5b50610111600480360381019061010c9190611a28565b610699565b005b34801561011f57600080fd5b5061013a60048036038101906101359190611fde565b610979565b005b34801561014857600080fd5b50610151610c94565b60405161015e9190612048565b60405180910390f35b34801561017357600080fd5b5061018e6004803603810190610189919061208f565b610cba565b60405161019b91906120de565b60405180910390f35b6101be60048036038101906101b99190611a28565b610cdf565b005b3480156101cc57600080fd5b506101d5611195565b6040516101e29190612158565b60405180910390f35b3480156101f757600080fd5b506102006111bb565b005b34801561020e57600080fd5b506102176111cf565b6040516102249190612048565b60405180910390f35b34801561023957600080fd5b50610254600480360381019061024f9190612173565b6111f8565b005b34801561026257600080fd5b5061026b6113e3565b60405161027891906123f3565b60405180910390f35b34801561028d57600080fd5b506102a860048036038101906102a39190612415565b611811565b005b600281815481106102ba57600080fd5b90600052602060002090600c0201600091509050806000016040518060c00160405290816000820180546102ed90612471565b80601f016020809104026020016040519081016040528092919081815260200182805461031990612471565b80156103665780601f1061033b57610100808354040283529160200191610366565b820191906000526020600020905b81548152906001019060200180831161034957829003601f168201915b5050505050815260200160018201805461037f90612471565b80601f01602080910402602001604051908101604052809291908181526020018280546103ab90612471565b80156103f85780601f106103cd576101008083540402835291602001916103f8565b820191906000526020600020905b8154815290600101906020018083116103db57829003601f168201915b5050505050815260200160028201548152602001600382015481526020016004820160009054906101000a900473ffffffffffffffffffffffffffffffffffffffff1673ffffffffffffffffffffffffffffffffffffffff1673ffffffffffffffffffffffffffffffffffffffff1681526020016004820160149054906101000a900460ff1660028111156104905761048f611b35565b5b60028111156104a2576104a1611b35565b5b8152505090806005016040518060e00160405290816000820180546104c690612471565b80601f01602080910402602001604051908101604052809291908181526020018280546104f290612471565b801561053f5780601f106105145761010080835404028352916020019161053f565b820191906000526020600020905b81548152906001019060200180831161052257829003601f168201915b50505050508152602001600182015481526020016002820154815260200160038201805461056c90612471565b80601f016020809104026020016040519081016040528092919081815260200182805461059890612471565b80156105e55780601f106105ba576101008083540402835291602001916105e5565b820191906000526020600020905b8154815290600101906020018083116105c857829003601f168201915b50505050508152602001600482015481526020016005820154815260200160068201805461061290612471565b80601f016020809104026020016040519081016040528092919081815260200182805461063e90612471565b801561068b5780601f106106605761010080835404028352916020019161068b565b820191906000526020600020905b81548152906001019060200180831161066e57829003601f168201915b505050505081525050905082565b6000600282815481106106af576106ae6124a2565b5b90600052602060002090600c020190508060000160040160009054906101000a900473ffffffffffffffffffffffffffffffffffffffff1673ffffffffffffffffffffffffffffffffffffffff163373ffffffffffffffffffffffffffffffffffffffff1614610754576040517f08c379a000000000000000000000000000000000000000000000000000000000815260040161074b90612554565b60405180910390fd5b6001600281111561076857610767611b35565b5b8160000160040160149054906101000a900460ff16600281111561078f5761078e611b35565b5b146107cf576040517f08c379a00000000000000000000000000000000000000000000000000000000081526004016107c6906125e6565b60405180910390fd5b6000816000016003015411610819576040517f08c379a000000000000000000000000000000000000000000000000000000000815260040161081090612652565b60405180910390fd5b60008160000160030154905060006103e860058361083791906126a1565b6108419190612712565b9050600081836108519190612743565b905060008460000160030181905550600460009054906101000a900473ffffffffffffffffffffffffffffffffffffffff1673ffffffffffffffffffffffffffffffffffffffff166108fc839081150290604051600060405180830381858888f193505050501580156108c8573d6000803e3d6000fd5b508360000160040160009054906101000a900473ffffffffffffffffffffffffffffffffffffffff1673ffffffffffffffffffffffffffffffffffffffff166108fc829081150290604051600060405180830381858888f19350505050158015610936573d6000803e3d6000fd5b507fd5550c71ca14cc44783a664cd798ecb70dcefed6b3cfdf323041ce6d221f2d7285828460405161096a93929190612777565b60405180910390a15050505050565b60008160400151116109c0576040517f08c379a00000000000000000000000000000000000000000000000000000000081526004016109b790612820565b60405180910390fd5b8060a00151816080015110610a0a576040517f08c379a0000000000000000000000000000000000000000000000000000000008152600401610a01906128b2565b60405180910390fd5b60006040518060c00160405280836000015181526020018360200151815260200183604001518152602001600081526020013373ffffffffffffffffffffffffffffffffffffffff16815260200160006002811115610a6c57610a6b611b35565b5b815250905060006040518060e0016040528084606001518152602001846080015181526020018460a0015181526020018460c0015181526020018460e00151815260200184610100015181526020018461012001518152509050600260405180604001604052808481526020018381525090806001815401808255809150506001900390600052602060002090600c02016000909190919091506000820151816000016000820151816000019081610b249190612a74565b506020820151816001019081610b3a9190612a74565b50604082015181600201556060820151816003015560808201518160040160006101000a81548173ffffffffffffffffffffffffffffffffffffffff021916908373ffffffffffffffffffffffffffffffffffffffff16021790555060a08201518160040160146101000a81548160ff02191690836002811115610bc157610bc0611b35565b5b021790555050506020820151816005016000820151816000019081610be69190612a74565b5060208201518160010155604082015181600201556060820151816003019081610c109190612a74565b506080820151816004015560a0820151816005015560c0820151816006019081610c3a9190612a74565b50505050507fc0c54fed07481d0998e1446b2c13759606bf4f26b78306307413ac4c4309aa826001600280549050610c729190612743565b846000015133604051610c8793929190612b7f565b60405180910390a1505050565b600460009054906101000a900473ffffffffffffffffffffffffffffffffffffffff1681565b6003602052816000526040600020602052806000526040600020600091509150505481565b6002805490508110610d26576040517f08c379a0000000000000000000000000000000000000000000000000000000008152600401610d1d90612c09565b60405180910390fd5b600060028281548110610d3c57610d3b6124a2565b5b90600052602060002090600c0201905060006002811115610d6057610d5f611b35565b5b8160000160040160149054906101000a900460ff166002811115610d8757610d86611b35565b5b14610dc7576040517f08c379a0000000000000000000000000000000000000000000000000000000008152600401610dbe90612c75565b60405180910390fd5b8060050160020154421115610e11576040517f08c379a0000000000000000000000000000000000000000000000000000000008152600401610e0890612ce1565b60405180910390fd5b60003411610e54576040517f08c379a0000000000000000000000000000000000000000000000000000000008152600401610e4b90612d73565b60405180910390fd5b8060050160040154341015610e9e576040517f08c379a0000000000000000000000000000000000000000000000000000000008152600401610e9590612ddf565b60405180910390fd5b8060050160050154341115610ee8576040517f08c379a0000000000000000000000000000000000000000000000000000000008152600401610edf90612e4b565b60405180910390fd5b34816000016003016000828254610eff9190612e6b565b9250508190555034600360003373ffffffffffffffffffffffffffffffffffffffff1673ffffffffffffffffffffffffffffffffffffffff16815260200190815260200160002060008481526020019081526020016000206000828254610f669190612e6b565b925050819055506000670de0b6b3a7640000600160009054906101000a900473ffffffffffffffffffffffffffffffffffffffff1673ffffffffffffffffffffffffffffffffffffffff1663313ce5676040518163ffffffff1660e01b8152600401602060405180830381865afa158015610fe5573d6000803e3d6000fd5b505050506040513d601f19601f820116820180604052508101906110099190612ed8565b600a6110159190613038565b600a3461102291906126a1565b61102c91906126a1565b6110369190612712565b9050600160009054906101000a900473ffffffffffffffffffffffffffffffffffffffff1673ffffffffffffffffffffffffffffffffffffffff166340c10f1933836040518363ffffffff1660e01b8152600401611095929190613083565b600060405180830381600087803b1580156110af57600080fd5b505af11580156110c3573d6000803e3d6000fd5b505050503373ffffffffffffffffffffffffffffffffffffffff167fd7570171f3eec5b5e70a829a2f7b1a40853d0159967de2efe2bf99208b9a560d84348460405161111193929190612777565b60405180910390a281600501600201544211156111905760018260000160040160146101000a81548160ff0219169083600281111561115357611152611b35565b5b02179055507f60d8df137e489b6216738e436244ca4700bd6d0c8371d3c8d9c80b54538111b98360405161118791906120de565b60405180910390a15b505050565b600160009054906101000a900473ffffffffffffffffffffffffffffffffffffffff1681565b6111c3611894565b6111cd6000611912565b565b60008060009054906101000a900473ffffffffffffffffffffffffffffffffffffffff16905090565b600280549050821061123f576040517f08c379a000000000000000000000000000000000000000000000000000000000815260040161123690612c09565b60405180910390fd5b600060028381548110611255576112546124a2565b5b90600052602060002090600c02019050806005016001015482116112ae576040517f08c379a00000000000000000000000000000000000000000000000000000000081526004016112a59061311e565b60405180910390fd5b600060028111156112c2576112c1611b35565b5b8160000160040160149054906101000a900460ff1660028111156112e9576112e8611b35565b5b14611329576040517f08c379a0000000000000000000000000000000000000000000000000000000008152600401611320906131b0565b60405180910390fd5b8181600501600201819055507fae02d6c3be4d5c04f7136e69785531cf1c6ab657a4081386746cb7338c8925d083836040516113669291906131d0565b60405180910390a1814211156113de5760018160000160040160146101000a81548160ff021916908360028111156113a1576113a0611b35565b5b02179055507f60d8df137e489b6216738e436244ca4700bd6d0c8371d3c8d9c80b54538111b9836040516113d591906120de565b60405180910390a15b505050565b60606002805480602002602001604051908101604052809291908181526020016000905b8282101561180857838290600052602060002090600c0201604051806040016040529081600082016040518060c001604052908160008201805461144a90612471565b80601f016020809104026020016040519081016040528092919081815260200182805461147690612471565b80156114c35780601f10611498576101008083540402835291602001916114c3565b820191906000526020600020905b8154815290600101906020018083116114a657829003601f168201915b505050505081526020016001820180546114dc90612471565b80601f016020809104026020016040519081016040528092919081815260200182805461150890612471565b80156115555780601f1061152a57610100808354040283529160200191611555565b820191906000526020600020905b81548152906001019060200180831161153857829003601f168201915b5050505050815260200160028201548152602001600382015481526020016004820160009054906101000a900473ffffffffffffffffffffffffffffffffffffffff1673ffffffffffffffffffffffffffffffffffffffff1673ffffffffffffffffffffffffffffffffffffffff1681526020016004820160149054906101000a900460ff1660028111156115ed576115ec611b35565b5b60028111156115ff576115fe611b35565b5b815250508152602001600582016040518060e001604052908160008201805461162790612471565b80601f016020809104026020016040519081016040528092919081815260200182805461165390612471565b80156116a05780601f10611675576101008083540402835291602001916116a0565b820191906000526020600020905b81548152906001019060200180831161168357829003601f168201915b5050505050815260200160018201548152602001600282015481526020016003820180546116cd90612471565b80601f01602080910402602001604051908101604052809291908181526020018280546116f990612471565b80156117465780601f1061171b57610100808354040283529160200191611746565b820191906000526020600020905b81548152906001019060200180831161172957829003601f168201915b50505050508152602001600482015481526020016005820154815260200160068201805461177390612471565b80601f016020809104026020016040519081016040528092919081815260200182805461179f90612471565b80156117ec5780601f106117c1576101008083540402835291602001916117ec565b820191906000526020600020905b8154815290600101906020018083116117cf57829003601f168201915b5050505050815250508152505081526020019060010190611407565b50505050905090565b611819611894565b600073ffffffffffffffffffffffffffffffffffffffff168173ffffffffffffffffffffffffffffffffffffffff1603611888576040517f08c379a000000000000000000000000000000000000000000000000000000000815260040161187f9061326b565b60405180910390fd5b61189181611912565b50565b61189c6119d6565b73ffffffffffffffffffffffffffffffffffffffff166118ba6111cf565b73ffffffffffffffffffffffffffffffffffffffff1614611910576040517f08c379a0000000000000000000000000000000000000000000000000000000008152600401611907906132d7565b60405180910390fd5b565b60008060009054906101000a900473ffffffffffffffffffffffffffffffffffffffff169050816000806101000a81548173ffffffffffffffffffffffffffffffffffffffff021916908373ffffffffffffffffffffffffffffffffffffffff1602179055508173ffffffffffffffffffffffffffffffffffffffff168173ffffffffffffffffffffffffffffffffffffffff167f8be0079c531659141344cd1fd0a4f28419497f9722a3daafe3b4186f6b6457e060405160405180910390a35050565b600033905090565b6000604051905090565b600080fd5b600080fd5b6000819050919050565b611a05816119f2565b8114611a1057600080fd5b50565b600081359050611a22816119fc565b92915050565b600060208284031215611a3e57611a3d6119e8565b5b6000611a4c84828501611a13565b91505092915050565b600081519050919050565b600082825260208201905092915050565b60005b83811015611a8f578082015181840152602081019050611a74565b60008484015250505050565b6000601f19601f8301169050919050565b6000611ab782611a55565b611ac18185611a60565b9350611ad1818560208601611a71565b611ada81611a9b565b840191505092915050565b611aee816119f2565b82525050565b600073ffffffffffffffffffffffffffffffffffffffff82169050919050565b6000611b1f82611af4565b9050919050565b611b2f81611b14565b82525050565b7f4e487b7100000000000000000000000000000000000000000000000000000000600052602160045260246000fd5b60038110611b7557611b74611b35565b5b50565b6000819050611b8682611b64565b919050565b6000611b9682611b78565b9050919050565b611ba681611b8b565b82525050565b600060c0830160008301518482036000860152611bc98282611aac565b91505060208301518482036020860152611be38282611aac565b9150506040830151611bf86040860182611ae5565b506060830151611c0b6060860182611ae5565b506080830151611c1e6080860182611b26565b5060a0830151611c3160a0860182611b9d565b508091505092915050565b600060e0830160008301518482036000860152611c598282611aac565b9150506020830151611c6e6020860182611ae5565b506040830151611c816040860182611ae5565b5060608301518482036060860152611c998282611aac565b9150506080830151611cae6080860182611ae5565b5060a0830151611cc160a0860182611ae5565b5060c083015184820360c0860152611cd98282611aac565b9150508091505092915050565b60006040820190508181036000830152611d008185611bac565b90508181036020830152611d148184611c3c565b90509392505050565b600080fd5b7f4e487b7100000000000000000000000000000000000000000000000000000000600052604160045260246000fd5b611d5a82611a9b565b810181811067ffffffffffffffff82111715611d7957611d78611d22565b5b80604052505050565b6000611d8c6119de565b9050611d988282611d51565b919050565b600080fd5b600080fd5b600080fd5b600067ffffffffffffffff821115611dc757611dc6611d22565b5b611dd082611a9b565b9050602081019050919050565b82818337600083830152505050565b6000611dff611dfa84611dac565b611d82565b905082815260208101848484011115611e1b57611e1a611da7565b5b611e26848285611ddd565b509392505050565b600082601f830112611e4357611e42611da2565b5b8135611e53848260208601611dec565b91505092915050565b60006101408284031215611e7357611e72611d1d565b5b611e7e610140611d82565b9050600082013567ffffffffffffffff811115611e9e57611e9d611d9d565b5b611eaa84828501611e2e565b600083015250602082013567ffffffffffffffff811115611ece57611ecd611d9d565b5b611eda84828501611e2e565b6020830152506040611eee84828501611a13565b604083015250606082013567ffffffffffffffff811115611f1257611f11611d9d565b5b611f1e84828501611e2e565b6060830152506080611f3284828501611a13565b60808301525060a0611f4684828501611a13565b60a08301525060c082013567ffffffffffffffff811115611f6a57611f69611d9d565b5b611f7684828501611e2e565b60c08301525060e0611f8a84828501611a13565b60e083015250610100611f9f84828501611a13565b6101008301525061012082013567ffffffffffffffff811115611fc557611fc4611d9d565b5b611fd184828501611e2e565b6101208301525092915050565b600060208284031215611ff457611ff36119e8565b5b600082013567ffffffffffffffff811115612012576120116119ed565b5b61201e84828501611e5c565b91505092915050565b600061203282611af4565b9050919050565b61204281612027565b82525050565b600060208201905061205d6000830184612039565b92915050565b61206c81612027565b811461207757600080fd5b50565b60008135905061208981612063565b92915050565b600080604083850312156120a6576120a56119e8565b5b60006120b48582860161207a565b92505060206120c585828601611a13565b9150509250929050565b6120d8816119f2565b82525050565b60006020820190506120f360008301846120cf565b92915050565b6000819050919050565b600061211e61211961211484611af4565b6120f9565b611af4565b9050919050565b600061213082612103565b9050919050565b600061214282612125565b9050919050565b61215281612137565b82525050565b600060208201905061216d6000830184612149565b92915050565b6000806040838503121561218a576121896119e8565b5b600061219885828601611a13565b92505060206121a985828601611a13565b9150509250929050565b600081519050919050565b600082825260208201905092915050565b6000819050602082019050919050565b600060c08301600083015184820360008601526121fc8282611aac565b915050602083015184820360208601526122168282611aac565b915050604083015161222b6040860182611ae5565b50606083015161223e6060860182611ae5565b5060808301516122516080860182611b26565b5060a083015161226460a0860182611b9d565b508091505092915050565b600060e083016000830151848203600086015261228c8282611aac565b91505060208301516122a16020860182611ae5565b5060408301516122b46040860182611ae5565b50606083015184820360608601526122cc8282611aac565b91505060808301516122e16080860182611ae5565b5060a08301516122f460a0860182611ae5565b5060c083015184820360c086015261230c8282611aac565b9150508091505092915050565b6000604083016000830151848203600086015261233682826121df565b91505060208301518482036020860152612350828261226f565b9150508091505092915050565b60006123698383612319565b905092915050565b6000602082019050919050565b6000612389826121b3565b61239381856121be565b9350836020820285016123a5856121cf565b8060005b858110156123e157848403895281516123c2858261235d565b94506123cd83612371565b925060208a019950506001810190506123a9565b50829750879550505050505092915050565b6000602082019050818103600083015261240d818461237e565b905092915050565b60006020828403121561242b5761242a6119e8565b5b60006124398482850161207a565b91505092915050565b7f4e487b7100000000000000000000000000000000000000000000000000000000600052602260045260246000fd5b6000600282049050600182168061248957607f821691505b60208210810361249c5761249b612442565b5b50919050565b7f4e487b7100000000000000000000000000000000000000000000000000000000600052603260045260246000fd5b600082825260208201905092915050565b7f4f6e6c792070726f6a656374206f776e65722063616e2077697468647261772060008201527f66756e6473000000000000000000000000000000000000000000000000000000602082015250565b600061253e6025836124d1565b9150612549826124e2565b604082019050919050565b6000602082019050818103600083015261256d81612531565b9050919050565b7f46756e64732063616e206f6e6c792062652077697468647261776e206166746560008201527f722070726f6a65637420697320636f6d706c6574656400000000000000000000602082015250565b60006125d06036836124d1565b91506125db82612574565b604082019050919050565b600060208201905081810360008301526125ff816125c3565b9050919050565b7f4e6f2066756e647320746f207769746864726177000000000000000000000000600082015250565b600061263c6014836124d1565b915061264782612606565b602082019050919050565b6000602082019050818103600083015261266b8161262f565b9050919050565b7f4e487b7100000000000000000000000000000000000000000000000000000000600052601160045260246000fd5b60006126ac826119f2565b91506126b7836119f2565b92508282026126c5816119f2565b915082820484148315176126dc576126db612672565b5b5092915050565b7f4e487b7100000000000000000000000000000000000000000000000000000000600052601260045260246000fd5b600061271d826119f2565b9150612728836119f2565b925082612738576127376126e3565b5b828204905092915050565b600061274e826119f2565b9150612759836119f2565b925082820390508181111561277157612770612672565b5b92915050565b600060608201905061278c60008301866120cf565b61279960208301856120cf565b6127a660408301846120cf565b949350505050565b7f546f74616c2066756e6473207265717569726564206d7573742062652067726560008201527f61746572207468616e207a65726f000000000000000000000000000000000000602082015250565b600061280a602e836124d1565b9150612815826127ae565b604082019050919050565b60006020820190508181036000830152612839816127fd565b9050919050565b7f53746172742064617465206d757374206265206265666f726520656e6420646160008201527f7465000000000000000000000000000000000000000000000000000000000000602082015250565b600061289c6022836124d1565b91506128a782612840565b604082019050919050565b600060208201905081810360008301526128cb8161288f565b9050919050565b60008190508160005260206000209050919050565b60006020601f8301049050919050565b600082821b905092915050565b6000600883026129347fffffffffffffffffffffffffffffffffffffffffffffffffffffffffffffffff826128f7565b61293e86836128f7565b95508019841693508086168417925050509392505050565b600061297161296c612967846119f2565b6120f9565b6119f2565b9050919050565b6000819050919050565b61298b83612956565b61299f61299782612978565b848454612904565b825550505050565b600090565b6129b46129a7565b6129bf818484612982565b505050565b5b818110156129e3576129d86000826129ac565b6001810190506129c5565b5050565b601f821115612a28576129f9816128d2565b612a02846128e7565b81016020851015612a11578190505b612a25612a1d856128e7565b8301826129c4565b50505b505050565b600082821c905092915050565b6000612a4b60001984600802612a2d565b1980831691505092915050565b6000612a648383612a3a565b9150826002028217905092915050565b612a7d82611a55565b67ffffffffffffffff811115612a9657612a95611d22565b5b612aa08254612471565b612aab8282856129e7565b600060209050601f831160018114612ade5760008415612acc578287015190505b612ad68582612a58565b865550612b3e565b601f198416612aec866128d2565b60005b82811015612b1457848901518255600182019150602085019450602081019050612aef565b86831015612b315784890151612b2d601f891682612a3a565b8355505b6001600288020188555050505b505050505050565b6000612b5182611a55565b612b5b81856124d1565b9350612b6b818560208601611a71565b612b7481611a9b565b840191505092915050565b6000606082019050612b9460008301866120cf565b8181036020830152612ba68185612b46565b9050612bb56040830184612039565b949350505050565b7f50726f6a65637420646f6573206e6f7420657869737400000000000000000000600082015250565b6000612bf36016836124d1565b9150612bfe82612bbd565b602082019050919050565b60006020820190508181036000830152612c2281612be6565b9050919050565b7f50726f6a656374206973206e6f74206163746976650000000000000000000000600082015250565b6000612c5f6015836124d1565b9150612c6a82612c29565b602082019050919050565b60006020820190508181036000830152612c8e81612c52565b9050919050565b7f50726f6a6563742068617320656e646564000000000000000000000000000000600082015250565b6000612ccb6011836124d1565b9150612cd682612c95565b602082019050919050565b60006020820190508181036000830152612cfa81612cbe565b9050919050565b7f446f6e6174696f6e20616d6f756e74206d75737420626520677265617465722060008201527f7468616e207a65726f0000000000000000000000000000000000000000000000602082015250565b6000612d5d6029836124d1565b9150612d6882612d01565b604082019050919050565b60006020820190508181036000830152612d8c81612d50565b9050919050565b7f446f6e6174696f6e2062656c6f77206d696e696d756d206c696d697400000000600082015250565b6000612dc9601c836124d1565b9150612dd482612d93565b602082019050919050565b60006020820190508181036000830152612df881612dbc565b9050919050565b7f446f6e6174696f6e2065786365656473206d6178696d756d206c696d69740000600082015250565b6000612e35601e836124d1565b9150612e4082612dff565b602082019050919050565b60006020820190508181036000830152612e6481612e28565b9050919050565b6000612e76826119f2565b9150612e81836119f2565b9250828201905080821115612e9957612e98612672565b5b92915050565b600060ff82169050919050565b612eb581612e9f565b8114612ec057600080fd5b50565b600081519050612ed281612eac565b92915050565b600060208284031215612eee57612eed6119e8565b5b6000612efc84828501612ec3565b91505092915050565b60008160011c9050919050565b6000808291508390505b6001851115612f5c57808604811115612f3857612f37612672565b5b6001851615612f475780820291505b8081029050612f5585612f05565b9450612f1c565b94509492505050565b600082612f755760019050613031565b81612f835760009050613031565b8160018114612f995760028114612fa357612fd2565b6001915050613031565b60ff841115612fb557612fb4612672565b5b8360020a915084821115612fcc57612fcb612672565b5b50613031565b5060208310610133831016604e8410600b84101617156130075782820a90508381111561300257613001612672565b5b613031565b6130148484846001612f12565b9250905081840481111561302b5761302a612672565b5b81810290505b9392505050565b6000613043826119f2565b915061304e83612e9f565b925061307b7fffffffffffffffffffffffffffffffffffffffffffffffffffffffffffffffff8484612f65565b905092915050565b60006040820190506130986000830185612039565b6130a560208301846120cf565b9392505050565b7f4e657720656e642064617465206d75737420626520616674657220737461727460008201527f2064617465000000000000000000000000000000000000000000000000000000602082015250565b60006131086025836124d1565b9150613113826130ac565b604082019050919050565b60006020820190508181036000830152613137816130fb565b9050919050565b7f43616e6e6f742075706461746520656e64206461746520666f7220696e61637460008201527f6976652070726f6a656374730000000000000000000000000000000000000000602082015250565b600061319a602c836124d1565b91506131a58261313e565b604082019050919050565b600060208201905081810360008301526131c98161318d565b9050919050565b60006040820190506131e560008301856120cf565b6131f260208301846120cf565b9392505050565b7f4f776e61626c653a206e6577206f776e657220697320746865207a65726f206160008201527f6464726573730000000000000000000000000000000000000000000000000000602082015250565b60006132556026836124d1565b9150613260826131f9565b604082019050919050565b6000602082019050818103600083015261328481613248565b9050919050565b7f4f776e61626c653a2063616c6c6572206973206e6f7420746865206f776e6572600082015250565b60006132c16020836124d1565b91506132cc8261328b565b602082019050919050565b600060208201905081810360008301526132f0816132b4565b905091905056fea2646970667358221220a022fd632bba5ae1cff38a23ccc0df71d4d67e026cb9bf5e3ef7e8b4c4dd16ad64736f6c634300081b0033",
  "linkReferences": {},
  "deployedLinkReferences": {}
}