{
  "_format": "hh-sol-artifact-1",
  "contractName": "GreenProject",
  "sourceName": "contracts/GreenProject.sol",
  "abi": [
    {
      "inputs": [
        {
          "internalType": "address",
          "name": "_ecoToken",
          "type": "address"
        },
        {
          "internalType": "address",
          "name": "_adminWallet",
          "type": "address"
        }
      ],
      "stateMutability": "nonpayable",
      "type": "constructor"
    },
    {
      "inputs": [
        {
          "internalType": "address",
          "name": "owner",
          "type": "address"
        }
      ],
      "name": "OwnableInvalidOwner",
      "type": "error"
    },
    {
      "inputs": [
        {
          "internalType": "address",
          "name": "account",
          "type": "address"
        }
      ],
      "name": "OwnableUnauthorizedAccount",
      "type": "error"
    },
    {
      "anonymous": false,
      "inputs": [
        {
          "indexed": true,
          "internalType": "address",
          "name": "donor",
          "type": "address"
        },
        {
          "indexed": false,
          "internalType": "uint256",
          "name": "projectId",
          "type": "uint256"
        },
        {
          "indexed": false,
          "internalType": "uint256",
          "name": "amount",
          "type": "uint256"
        },
        {
          "indexed": false,
          "internalType": "uint256",
          "name": "tokensAwarded",
          "type": "uint256"
        }
      ],
      "name": "DonationMade",
      "type": "event"
    },
    {
      "anonymous": false,
      "inputs": [
        {
          "indexed": false,
          "internalType": "uint256",
          "name": "projectId",
          "type": "uint256"
        },
        {
          "indexed": false,
          "internalType": "uint256",
          "name": "amount",
          "type": "uint256"
        },
        {
          "indexed": false,
          "internalType": "uint256",
          "name": "adminFee",
          "type": "uint256"
        }
      ],
      "name": "FundsWithdrawn",
      "type": "event"
    },
    {
      "anonymous": false,
      "inputs": [
        {
          "indexed": true,
          "internalType": "address",
          "name": "previousOwner",
          "type": "address"
        },
        {
          "indexed": true,
          "internalType": "address",
          "name": "newOwner",
          "type": "address"
        }
      ],
      "name": "OwnershipTransferred",
      "type": "event"
    },
    {
      "anonymous": false,
      "inputs": [
        {
          "indexed": false,
          "internalType": "uint256",
          "name": "projectId",
          "type": "uint256"
        }
      ],
      "name": "ProjectCompleted",
      "type": "event"
    },
    {
      "anonymous": false,
      "inputs": [
        {
          "indexed": false,
          "internalType": "uint256",
          "name": "projectId",
          "type": "uint256"
        },
        {
          "indexed": false,
          "internalType": "string",
          "name": "name",
          "type": "string"
        },
        {
          "indexed": false,
          "internalType": "address",
          "name": "projectOwner",
          "type": "address"
        }
      ],
      "name": "ProjectCreated",
      "type": "event"
    },
    {
      "anonymous": false,
      "inputs": [
        {
          "indexed": false,
          "internalType": "uint256",
          "name": "projectId",
          "type": "uint256"
        },
        {
          "indexed": false,
          "internalType": "uint256",
          "name": "newEndDate",
          "type": "uint256"
        }
      ],
      "name": "ProjectEndDateUpdated",
      "type": "event"
    },
    {
      "inputs": [],
      "name": "adminWallet",
      "outputs": [
        {
          "internalType": "address",
          "name": "",
          "type": "address"
        }
      ],
      "stateMutability": "view",
      "type": "function"
    },
    {
      "inputs": [
        {
          "components": [
            {
              "internalType": "string",
              "name": "name",
              "type": "string"
            },
            {
              "internalType": "string",
              "name": "description",
              "type": "string"
            },
            {
              "internalType": "uint256",
              "name": "totalFundsRequired",
              "type": "uint256"
            },
            {
              "internalType": "string",
              "name": "category",
              "type": "string"
            },
            {
              "internalType": "uint256",
              "name": "startDate",
              "type": "uint256"
            },
            {
              "internalType": "uint256",
              "name": "endDate",
              "type": "uint256"
            },
            {
              "internalType": "string",
              "name": "location",
              "type": "string"
            },
            {
              "internalType": "uint256",
              "name": "minDonation",
              "type": "uint256"
            },
            {
              "internalType": "uint256",
              "name": "maxDonation",
              "type": "uint256"
            },
            {
              "internalType": "string",
              "name": "mediaUrl",
              "type": "string"
            }
          ],
          "internalType": "struct GreenProject.ProjectInput",
          "name": "projectInput",
          "type": "tuple"
        }
      ],
      "name": "createProject",
      "outputs": [],
      "stateMutability": "nonpayable",
      "type": "function"
    },
    {
      "inputs": [
        {
          "internalType": "uint256",
          "name": "projectId",
          "type": "uint256"
        }
      ],
      "name": "donateToProject",
      "outputs": [],
      "stateMutability": "payable",
      "type": "function"
    },
    {
      "inputs": [],
      "name": "ecoToken",
      "outputs": [
        {
          "internalType": "contract EcoToken",
          "name": "",
          "type": "address"
        }
      ],
      "stateMutability": "view",
      "type": "function"
    },
    {
      "inputs": [],
      "name": "getProjects",
      "outputs": [
        {
          "components": [
            {
              "components": [
                {
                  "internalType": "string",
                  "name": "name",
                  "type": "string"
                },
                {
                  "internalType": "string",
                  "name": "description",
                  "type": "string"
                },
                {
                  "internalType": "uint256",
                  "name": "totalFundsRequired",
                  "type": "uint256"
                },
                {
                  "internalType": "uint256",
                  "name": "fundsRaised",
                  "type": "uint256"
                },
                {
                  "internalType": "address payable",
                  "name": "projectOwner",
                  "type": "address"
                },
                {
                  "internalType": "enum GreenProject.Status",
                  "name": "status",
                  "type": "uint8"
                }
              ],
              "internalType": "struct GreenProject.ProjectCore",
              "name": "core",
              "type": "tuple"
            },
            {
              "components": [
                {
                  "internalType": "string",
                  "name": "category",
                  "type": "string"
                },
                {
                  "internalType": "uint256",
                  "name": "startDate",
                  "type": "uint256"
                },
                {
                  "internalType": "uint256",
                  "name": "endDate",
                  "type": "uint256"
                },
                {
                  "internalType": "string",
                  "name": "location",
                  "type": "string"
                },
                {
                  "internalType": "uint256",
                  "name": "minDonation",
                  "type": "uint256"
                },
                {
                  "internalType": "uint256",
                  "name": "maxDonation",
                  "type": "uint256"
                },
                {
                  "internalType": "string",
                  "name": "mediaUrl",
                  "type": "string"
                }
              ],
              "internalType": "struct GreenProject.ProjectDetails",
              "name": "details",
              "type": "tuple"
            }
          ],
          "internalType": "struct GreenProject.Project[]",
          "name": "",
          "type": "tuple[]"
        }
      ],
      "stateMutability": "view",
      "type": "function"
    },
    {
      "inputs": [],
      "name": "owner",
      "outputs": [
        {
          "internalType": "address",
          "name": "",
          "type": "address"
        }
      ],
      "stateMutability": "view",
      "type": "function"
    },
    {
      "inputs": [
        {
          "internalType": "uint256",
          "name": "",
          "type": "uint256"
        }
      ],
      "name": "projects",
      "outputs": [
        {
          "components": [
            {
              "internalType": "string",
              "name": "name",
              "type": "string"
            },
            {
              "internalType": "string",
              "name": "description",
              "type": "string"
            },
            {
              "internalType": "uint256",
              "name": "totalFundsRequired",
              "type": "uint256"
            },
            {
              "internalType": "uint256",
              "name": "fundsRaised",
              "type": "uint256"
            },
            {
              "internalType": "address payable",
              "name": "projectOwner",
              "type": "address"
            },
            {
              "internalType": "enum GreenProject.Status",
              "name": "status",
              "type": "uint8"
            }
          ],
          "internalType": "struct GreenProject.ProjectCore",
          "name": "core",
          "type": "tuple"
        },
        {
          "components": [
            {
              "internalType": "string",
              "name": "category",
              "type": "string"
            },
            {
              "internalType": "uint256",
              "name": "startDate",
              "type": "uint256"
            },
            {
              "internalType": "uint256",
              "name": "endDate",
              "type": "uint256"
            },
            {
              "internalType": "string",
              "name": "location",
              "type": "string"
            },
            {
              "internalType": "uint256",
              "name": "minDonation",
              "type": "uint256"
            },
            {
              "internalType": "uint256",
              "name": "maxDonation",
              "type": "uint256"
            },
            {
              "internalType": "string",
              "name": "mediaUrl",
              "type": "string"
            }
          ],
          "internalType": "struct GreenProject.ProjectDetails",
          "name": "details",
          "type": "tuple"
        }
      ],
      "stateMutability": "view",
      "type": "function"
    },
    {
      "inputs": [],
      "name": "renounceOwnership",
      "outputs": [],
      "stateMutability": "nonpayable",
      "type": "function"
    },
    {
      "inputs": [
        {
          "internalType": "address",
          "name": "newOwner",
          "type": "address"
        }
      ],
      "name": "transferOwnership",
      "outputs": [],
      "stateMutability": "nonpayable",
      "type": "function"
    },
    {
      "inputs": [
        {
          "internalType": "uint256",
          "name": "projectId",
          "type": "uint256"
        },
        {
          "internalType": "uint256",
          "name": "newEndDate",
          "type": "uint256"
        }
      ],
      "name": "updateProjectEndDate",
      "outputs": [],
      "stateMutability": "nonpayable",
      "type": "function"
    },
    {
      "inputs": [
        {
          "internalType": "address",
          "name": "",
          "type": "address"
        },
        {
          "internalType": "uint256",
          "name": "",
          "type": "uint256"
        }
      ],
      "name": "userDonations",
      "outputs": [
        {
          "internalType": "uint256",
          "name": "",
          "type": "uint256"
        }
      ],
      "stateMutability": "view",
      "type": "function"
    },
    {
      "inputs": [
        {
          "internalType": "uint256",
          "name": "projectId",
          "type": "uint256"
        }
      ],
      "name": "withdrawFunds",
      "outputs": [],
      "stateMutability": "nonpayable",
      "type": "function"
    }
  ],
  "bytecode": "0x608060405234801561001057600080fd5b5060405161351938038061351983398181016040528101906100329190610265565b33600073ffffffffffffffffffffffffffffffffffffffff168173ffffffffffffffffffffffffffffffffffffffff16036100a55760006040517f1e4fbdf700000000000000000000000000000000000000000000000000000000815260040161009c91906102b4565b60405180910390fd5b6100b48161013e60201b60201c565b5081600160006101000a81548173ffffffffffffffffffffffffffffffffffffffff021916908373ffffffffffffffffffffffffffffffffffffffff16021790555080600460006101000a81548173ffffffffffffffffffffffffffffffffffffffff021916908373ffffffffffffffffffffffffffffffffffffffff16021790555050506102cf565b60008060009054906101000a900473ffffffffffffffffffffffffffffffffffffffff169050816000806101000a81548173ffffffffffffffffffffffffffffffffffffffff021916908373ffffffffffffffffffffffffffffffffffffffff1602179055508173ffffffffffffffffffffffffffffffffffffffff168173ffffffffffffffffffffffffffffffffffffffff167f8be0079c531659141344cd1fd0a4f28419497f9722a3daafe3b4186f6b6457e060405160405180910390a35050565b600080fd5b600073ffffffffffffffffffffffffffffffffffffffff82169050919050565b600061023282610207565b9050919050565b61024281610227565b811461024d57600080fd5b50565b60008151905061025f81610239565b92915050565b6000806040838503121561027c5761027b610202565b5b600061028a85828601610250565b925050602061029b85828601610250565b9150509250929050565b6102ae81610227565b82525050565b60006020820190506102c960008301846102a5565b92915050565b61323b806102de6000396000f3fe6080604052600436106100a75760003560e01c8063705d530411610064578063705d5304146101c0578063715018a6146101eb5780638da5cb5b146102025780639ece9a791461022d578063dcc6012814610256578063f2fde38b14610281576100a7565b8063107046bd146100ac578063155dd5ee146100ea5780631a7584cc1461011357806336b19cd71461013c5780634933e6311461016757806356adb06f146101a4575b600080fd5b3480156100b857600080fd5b506100d360048036038101906100ce9190611a34565b6102aa565b6040516100e1929190611cf2565b60405180910390f35b3480156100f657600080fd5b50610111600480360381019061010c9190611a34565b610699565b005b34801561011f57600080fd5b5061013a60048036038101906101359190611fea565b610979565b005b34801561014857600080fd5b50610151610c94565b60405161015e9190612054565b60405180910390f35b34801561017357600080fd5b5061018e6004803603810190610189919061209b565b610cba565b60405161019b91906120ea565b60405180910390f35b6101be60048036038101906101b99190611a34565b610cdf565b005b3480156101cc57600080fd5b506101d5611195565b6040516101e29190612164565b60405180910390f35b3480156101f757600080fd5b506102006111bb565b005b34801561020e57600080fd5b506102176111cf565b6040516102249190612054565b60405180910390f35b34801561023957600080fd5b50610254600480360381019061024f919061217f565b6111f8565b005b34801561026257600080fd5b5061026b6113e3565b60405161027891906123ff565b60405180910390f35b34801561028d57600080fd5b506102a860048036038101906102a39190612421565b611811565b005b600281815481106102ba57600080fd5b90600052602060002090600c0201600091509050806000016040518060c00160405290816000820180546102ed9061247d565b80601f01602080910402602001604051908101604052809291908181526020018280546103199061247d565b80156103665780601f1061033b57610100808354040283529160200191610366565b820191906000526020600020905b81548152906001019060200180831161034957829003601f168201915b5050505050815260200160018201805461037f9061247d565b80601f01602080910402602001604051908101604052809291908181526020018280546103ab9061247d565b80156103f85780601f106103cd576101008083540402835291602001916103f8565b820191906000526020600020905b8154815290600101906020018083116103db57829003601f168201915b5050505050815260200160028201548152602001600382015481526020016004820160009054906101000a900473ffffffffffffffffffffffffffffffffffffffff1673ffffffffffffffffffffffffffffffffffffffff1673ffffffffffffffffffffffffffffffffffffffff1681526020016004820160149054906101000a900460ff1660028111156104905761048f611b41565b5b60028111156104a2576104a1611b41565b5b8152505090806005016040518060e00160405290816000820180546104c69061247d565b80601f01602080910402602001604051908101604052809291908181526020018280546104f29061247d565b801561053f5780601f106105145761010080835404028352916020019161053f565b820191906000526020600020905b81548152906001019060200180831161052257829003601f168201915b50505050508152602001600182015481526020016002820154815260200160038201805461056c9061247d565b80601f01602080910402602001604051908101604052809291908181526020018280546105989061247d565b80156105e55780601f106105ba576101008083540402835291602001916105e5565b820191906000526020600020905b8154815290600101906020018083116105c857829003601f168201915b5050505050815260200160048201548152602001600582015481526020016006820180546106129061247d565b80601f016020809104026020016040519081016040528092919081815260200182805461063e9061247d565b801561068b5780601f106106605761010080835404028352916020019161068b565b820191906000526020600020905b81548152906001019060200180831161066e57829003601f168201915b505050505081525050905082565b6000600282815481106106af576106ae6124ae565b5b90600052602060002090600c020190508060000160040160009054906101000a900473ffffffffffffffffffffffffffffffffffffffff1673ffffffffffffffffffffffffffffffffffffffff163373ffffffffffffffffffffffffffffffffffffffff1614610754576040517f08c379a000000000000000000000000000000000000000000000000000000000815260040161074b90612560565b60405180910390fd5b6001600281111561076857610767611b41565b5b8160000160040160149054906101000a900460ff16600281111561078f5761078e611b41565b5b146107cf576040517f08c379a00000000000000000000000000000000000000000000000000000000081526004016107c6906125f2565b60405180910390fd5b6000816000016003015411610819576040517f08c379a00000000000000000000000000000000000000000000000000000000081526004016108109061265e565b60405180910390fd5b60008160000160030154905060006103e860058361083791906126ad565b610841919061271e565b905060008183610851919061274f565b905060008460000160030181905550600460009054906101000a900473ffffffffffffffffffffffffffffffffffffffff1673ffffffffffffffffffffffffffffffffffffffff166108fc839081150290604051600060405180830381858888f193505050501580156108c8573d6000803e3d6000fd5b508360000160040160009054906101000a900473ffffffffffffffffffffffffffffffffffffffff1673ffffffffffffffffffffffffffffffffffffffff166108fc829081150290604051600060405180830381858888f19350505050158015610936573d6000803e3d6000fd5b507fd5550c71ca14cc44783a664cd798ecb70dcefed6b3cfdf323041ce6d221f2d7285828460405161096a93929190612783565b60405180910390a15050505050565b60008160400151116109c0576040517f08c379a00000000000000000000000000000000000000000000000000000000081526004016109b79061282c565b60405180910390fd5b8060a00151816080015110610a0a576040517f08c379a0000000000000000000000000000000000000000000000000000000008152600401610a01906128be565b60405180910390fd5b60006040518060c00160405280836000015181526020018360200151815260200183604001518152602001600081526020013373ffffffffffffffffffffffffffffffffffffffff16815260200160006002811115610a6c57610a6b611b41565b5b815250905060006040518060e0016040528084606001518152602001846080015181526020018460a0015181526020018460c0015181526020018460e00151815260200184610100015181526020018461012001518152509050600260405180604001604052808481526020018381525090806001815401808255809150506001900390600052602060002090600c02016000909190919091506000820151816000016000820151816000019081610b249190612a80565b506020820151816001019081610b3a9190612a80565b50604082015181600201556060820151816003015560808201518160040160006101000a81548173ffffffffffffffffffffffffffffffffffffffff021916908373ffffffffffffffffffffffffffffffffffffffff16021790555060a08201518160040160146101000a81548160ff02191690836002811115610bc157610bc0611b41565b5b021790555050506020820151816005016000820151816000019081610be69190612a80565b5060208201518160010155604082015181600201556060820151816003019081610c109190612a80565b506080820151816004015560a0820151816005015560c0820151816006019081610c3a9190612a80565b50505050507fc0c54fed07481d0998e1446b2c13759606bf4f26b78306307413ac4c4309aa826001600280549050610c72919061274f565b846000015133604051610c8793929190612b8b565b60405180910390a1505050565b600460009054906101000a900473ffffffffffffffffffffffffffffffffffffffff1681565b6003602052816000526040600020602052806000526040600020600091509150505481565b6002805490508110610d26576040517f08c379a0000000000000000000000000000000000000000000000000000000008152600401610d1d90612c15565b60405180910390fd5b600060028281548110610d3c57610d3b6124ae565b5b90600052602060002090600c0201905060006002811115610d6057610d5f611b41565b5b8160000160040160149054906101000a900460ff166002811115610d8757610d86611b41565b5b14610dc7576040517f08c379a0000000000000000000000000000000000000000000000000000000008152600401610dbe90612c81565b60405180910390fd5b8060050160020154421115610e11576040517f08c379a0000000000000000000000000000000000000000000000000000000008152600401610e0890612ced565b60405180910390fd5b60003411610e54576040517f08c379a0000000000000000000000000000000000000000000000000000000008152600401610e4b90612d7f565b60405180910390fd5b8060050160040154341015610e9e576040517f08c379a0000000000000000000000000000000000000000000000000000000008152600401610e9590612deb565b60405180910390fd5b8060050160050154341115610ee8576040517f08c379a0000000000000000000000000000000000000000000000000000000008152600401610edf90612e57565b60405180910390fd5b34816000016003016000828254610eff9190612e77565b9250508190555034600360003373ffffffffffffffffffffffffffffffffffffffff1673ffffffffffffffffffffffffffffffffffffffff16815260200190815260200160002060008481526020019081526020016000206000828254610f669190612e77565b925050819055506000670de0b6b3a7640000600160009054906101000a900473ffffffffffffffffffffffffffffffffffffffff1673ffffffffffffffffffffffffffffffffffffffff1663313ce5676040518163ffffffff1660e01b8152600401602060405180830381865afa158015610fe5573d6000803e3d6000fd5b505050506040513d601f19601f820116820180604052508101906110099190612ee4565b600a6110159190613044565b600a3461102291906126ad565b61102c91906126ad565b611036919061271e565b9050600160009054906101000a900473ffffffffffffffffffffffffffffffffffffffff1673ffffffffffffffffffffffffffffffffffffffff166340c10f1933836040518363ffffffff1660e01b815260040161109592919061308f565b600060405180830381600087803b1580156110af57600080fd5b505af11580156110c3573d6000803e3d6000fd5b505050503373ffffffffffffffffffffffffffffffffffffffff167fd7570171f3eec5b5e70a829a2f7b1a40853d0159967de2efe2bf99208b9a560d84348460405161111193929190612783565b60405180910390a281600501600201544211156111905760018260000160040160146101000a81548160ff0219169083600281111561115357611152611b41565b5b02179055507f60d8df137e489b6216738e436244ca4700bd6d0c8371d3c8d9c80b54538111b98360405161118791906120ea565b60405180910390a15b505050565b600160009054906101000a900473ffffffffffffffffffffffffffffffffffffffff1681565b6111c3611897565b6111cd600061191e565b565b60008060009054906101000a900473ffffffffffffffffffffffffffffffffffffffff16905090565b600280549050821061123f576040517f08c379a000000000000000000000000000000000000000000000000000000000815260040161123690612c15565b60405180910390fd5b600060028381548110611255576112546124ae565b5b90600052602060002090600c02019050806005016001015482116112ae576040517f08c379a00000000000000000000000000000000000000000000000000000000081526004016112a59061312a565b60405180910390fd5b600060028111156112c2576112c1611b41565b5b8160000160040160149054906101000a900460ff1660028111156112e9576112e8611b41565b5b14611329576040517f08c379a0000000000000000000000000000000000000000000000000000000008152600401611320906131bc565b60405180910390fd5b8181600501600201819055507fae02d6c3be4d5c04f7136e69785531cf1c6ab657a4081386746cb7338c8925d083836040516113669291906131dc565b60405180910390a1814211156113de5760018160000160040160146101000a81548160ff021916908360028111156113a1576113a0611b41565b5b02179055507f60d8df137e489b6216738e436244ca4700bd6d0c8371d3c8d9c80b54538111b9836040516113d591906120ea565b60405180910390a15b505050565b60606002805480602002602001604051908101604052809291908181526020016000905b8282101561180857838290600052602060002090600c0201604051806040016040529081600082016040518060c001604052908160008201805461144a9061247d565b80601f01602080910402602001604051908101604052809291908181526020018280546114769061247d565b80156114c35780601f10611498576101008083540402835291602001916114c3565b820191906000526020600020905b8154815290600101906020018083116114a657829003601f168201915b505050505081526020016001820180546114dc9061247d565b80601f01602080910402602001604051908101604052809291908181526020018280546115089061247d565b80156115555780601f1061152a57610100808354040283529160200191611555565b820191906000526020600020905b81548152906001019060200180831161153857829003601f168201915b5050505050815260200160028201548152602001600382015481526020016004820160009054906101000a900473ffffffffffffffffffffffffffffffffffffffff1673ffffffffffffffffffffffffffffffffffffffff1673ffffffffffffffffffffffffffffffffffffffff1681526020016004820160149054906101000a900460ff1660028111156115ed576115ec611b41565b5b60028111156115ff576115fe611b41565b5b815250508152602001600582016040518060e00160405290816000820180546116279061247d565b80601f01602080910402602001604051908101604052809291908181526020018280546116539061247d565b80156116a05780601f10611675576101008083540402835291602001916116a0565b820191906000526020600020905b81548152906001019060200180831161168357829003601f168201915b5050505050815260200160018201548152602001600282015481526020016003820180546116cd9061247d565b80601f01602080910402602001604051908101604052809291908181526020018280546116f99061247d565b80156117465780601f1061171b57610100808354040283529160200191611746565b820191906000526020600020905b81548152906001019060200180831161172957829003601f168201915b5050505050815260200160048201548152602001600582015481526020016006820180546117739061247d565b80601f016020809104026020016040519081016040528092919081815260200182805461179f9061247d565b80156117ec5780601f106117c1576101008083540402835291602001916117ec565b820191906000526020600020905b8154815290600101906020018083116117cf57829003601f168201915b5050505050815250508152505081526020019060010190611407565b50505050905090565b611819611897565b600073ffffffffffffffffffffffffffffffffffffffff168173ffffffffffffffffffffffffffffffffffffffff160361188b5760006040517f1e4fbdf70000000000000000000000000000000000000000000000000000000081526004016118829190612054565b60405180910390fd5b6118948161191e565b50565b61189f6119e2565b73ffffffffffffffffffffffffffffffffffffffff166118bd6111cf565b73ffffffffffffffffffffffffffffffffffffffff161461191c576118e06119e2565b6040517f118cdaa70000000000000000000000000000000000000000000000000000000081526004016119139190612054565b60405180910390fd5b565b60008060009054906101000a900473ffffffffffffffffffffffffffffffffffffffff169050816000806101000a81548173ffffffffffffffffffffffffffffffffffffffff021916908373ffffffffffffffffffffffffffffffffffffffff1602179055508173ffffffffffffffffffffffffffffffffffffffff168173ffffffffffffffffffffffffffffffffffffffff167f8be0079c531659141344cd1fd0a4f28419497f9722a3daafe3b4186f6b6457e060405160405180910390a35050565b600033905090565b6000604051905090565b600080fd5b600080fd5b6000819050919050565b611a11816119fe565b8114611a1c57600080fd5b50565b600081359050611a2e81611a08565b92915050565b600060208284031215611a4a57611a496119f4565b5b6000611a5884828501611a1f565b91505092915050565b600081519050919050565b600082825260208201905092915050565b60005b83811015611a9b578082015181840152602081019050611a80565b60008484015250505050565b6000601f19601f8301169050919050565b6000611ac382611a61565b611acd8185611a6c565b9350611add818560208601611a7d565b611ae681611aa7565b840191505092915050565b611afa816119fe565b82525050565b600073ffffffffffffffffffffffffffffffffffffffff82169050919050565b6000611b2b82611b00565b9050919050565b611b3b81611b20565b82525050565b7f4e487b7100000000000000000000000000000000000000000000000000000000600052602160045260246000fd5b60038110611b8157611b80611b41565b5b50565b6000819050611b9282611b70565b919050565b6000611ba282611b84565b9050919050565b611bb281611b97565b82525050565b600060c0830160008301518482036000860152611bd58282611ab8565b91505060208301518482036020860152611bef8282611ab8565b9150506040830151611c046040860182611af1565b506060830151611c176060860182611af1565b506080830151611c2a6080860182611b32565b5060a0830151611c3d60a0860182611ba9565b508091505092915050565b600060e0830160008301518482036000860152611c658282611ab8565b9150506020830151611c7a6020860182611af1565b506040830151611c8d6040860182611af1565b5060608301518482036060860152611ca58282611ab8565b9150506080830151611cba6080860182611af1565b5060a0830151611ccd60a0860182611af1565b5060c083015184820360c0860152611ce58282611ab8565b9150508091505092915050565b60006040820190508181036000830152611d0c8185611bb8565b90508181036020830152611d208184611c48565b90509392505050565b600080fd5b7f4e487b7100000000000000000000000000000000000000000000000000000000600052604160045260246000fd5b611d6682611aa7565b810181811067ffffffffffffffff82111715611d8557611d84611d2e565b5b80604052505050565b6000611d986119ea565b9050611da48282611d5d565b919050565b600080fd5b600080fd5b600080fd5b600067ffffffffffffffff821115611dd357611dd2611d2e565b5b611ddc82611aa7565b9050602081019050919050565b82818337600083830152505050565b6000611e0b611e0684611db8565b611d8e565b905082815260208101848484011115611e2757611e26611db3565b5b611e32848285611de9565b509392505050565b600082601f830112611e4f57611e4e611dae565b5b8135611e5f848260208601611df8565b91505092915050565b60006101408284031215611e7f57611e7e611d29565b5b611e8a610140611d8e565b9050600082013567ffffffffffffffff811115611eaa57611ea9611da9565b5b611eb684828501611e3a565b600083015250602082013567ffffffffffffffff811115611eda57611ed9611da9565b5b611ee684828501611e3a565b6020830152506040611efa84828501611a1f565b604083015250606082013567ffffffffffffffff811115611f1e57611f1d611da9565b5b611f2a84828501611e3a565b6060830152506080611f3e84828501611a1f565b60808301525060a0611f5284828501611a1f565b60a08301525060c082013567ffffffffffffffff811115611f7657611f75611da9565b5b611f8284828501611e3a565b60c08301525060e0611f9684828501611a1f565b60e083015250610100611fab84828501611a1f565b6101008301525061012082013567ffffffffffffffff811115611fd157611fd0611da9565b5b611fdd84828501611e3a565b6101208301525092915050565b60006020828403121561200057611fff6119f4565b5b600082013567ffffffffffffffff81111561201e5761201d6119f9565b5b61202a84828501611e68565b91505092915050565b600061203e82611b00565b9050919050565b61204e81612033565b82525050565b60006020820190506120696000830184612045565b92915050565b61207881612033565b811461208357600080fd5b50565b6000813590506120958161206f565b92915050565b600080604083850312156120b2576120b16119f4565b5b60006120c085828601612086565b92505060206120d185828601611a1f565b9150509250929050565b6120e4816119fe565b82525050565b60006020820190506120ff60008301846120db565b92915050565b6000819050919050565b600061212a61212561212084611b00565b612105565b611b00565b9050919050565b600061213c8261210f565b9050919050565b600061214e82612131565b9050919050565b61215e81612143565b82525050565b60006020820190506121796000830184612155565b92915050565b60008060408385031215612196576121956119f4565b5b60006121a485828601611a1f565b92505060206121b585828601611a1f565b9150509250929050565b600081519050919050565b600082825260208201905092915050565b6000819050602082019050919050565b600060c08301600083015184820360008601526122088282611ab8565b915050602083015184820360208601526122228282611ab8565b91505060408301516122376040860182611af1565b50606083015161224a6060860182611af1565b50608083015161225d6080860182611b32565b5060a083015161227060a0860182611ba9565b508091505092915050565b600060e08301600083015184820360008601526122988282611ab8565b91505060208301516122ad6020860182611af1565b5060408301516122c06040860182611af1565b50606083015184820360608601526122d88282611ab8565b91505060808301516122ed6080860182611af1565b5060a083015161230060a0860182611af1565b5060c083015184820360c08601526123188282611ab8565b9150508091505092915050565b6000604083016000830151848203600086015261234282826121eb565b9150506020830151848203602086015261235c828261227b565b9150508091505092915050565b60006123758383612325565b905092915050565b6000602082019050919050565b6000612395826121bf565b61239f81856121ca565b9350836020820285016123b1856121db565b8060005b858110156123ed57848403895281516123ce8582612369565b94506123d98361237d565b925060208a019950506001810190506123b5565b50829750879550505050505092915050565b60006020820190508181036000830152612419818461238a565b905092915050565b600060208284031215612437576124366119f4565b5b600061244584828501612086565b91505092915050565b7f4e487b7100000000000000000000000000000000000000000000000000000000600052602260045260246000fd5b6000600282049050600182168061249557607f821691505b6020821081036124a8576124a761244e565b5b50919050565b7f4e487b7100000000000000000000000000000000000000000000000000000000600052603260045260246000fd5b600082825260208201905092915050565b7f4f6e6c792070726f6a656374206f776e65722063616e2077697468647261772060008201527f66756e6473000000000000000000000000000000000000000000000000000000602082015250565b600061254a6025836124dd565b9150612555826124ee565b604082019050919050565b600060208201905081810360008301526125798161253d565b9050919050565b7f46756e64732063616e206f6e6c792062652077697468647261776e206166746560008201527f722070726f6a65637420697320636f6d706c6574656400000000000000000000602082015250565b60006125dc6036836124dd565b91506125e782612580565b604082019050919050565b6000602082019050818103600083015261260b816125cf565b9050919050565b7f4e6f2066756e647320746f207769746864726177000000000000000000000000600082015250565b60006126486014836124dd565b915061265382612612565b602082019050919050565b600060208201905081810360008301526126778161263b565b9050919050565b7f4e487b7100000000000000000000000000000000000000000000000000000000600052601160045260246000fd5b60006126b8826119fe565b91506126c3836119fe565b92508282026126d1816119fe565b915082820484148315176126e8576126e761267e565b5b5092915050565b7f4e487b7100000000000000000000000000000000000000000000000000000000600052601260045260246000fd5b6000612729826119fe565b9150612734836119fe565b925082612744576127436126ef565b5b828204905092915050565b600061275a826119fe565b9150612765836119fe565b925082820390508181111561277d5761277c61267e565b5b92915050565b600060608201905061279860008301866120db565b6127a560208301856120db565b6127b260408301846120db565b949350505050565b7f546f74616c2066756e6473207265717569726564206d7573742062652067726560008201527f61746572207468616e207a65726f000000000000000000000000000000000000602082015250565b6000612816602e836124dd565b9150612821826127ba565b604082019050919050565b6000602082019050818103600083015261284581612809565b9050919050565b7f53746172742064617465206d757374206265206265666f726520656e6420646160008201527f7465000000000000000000000000000000000000000000000000000000000000602082015250565b60006128a86022836124dd565b91506128b38261284c565b604082019050919050565b600060208201905081810360008301526128d78161289b565b9050919050565b60008190508160005260206000209050919050565b60006020601f8301049050919050565b600082821b905092915050565b6000600883026129407fffffffffffffffffffffffffffffffffffffffffffffffffffffffffffffffff82612903565b61294a8683612903565b95508019841693508086168417925050509392505050565b600061297d612978612973846119fe565b612105565b6119fe565b9050919050565b6000819050919050565b61299783612962565b6129ab6129a382612984565b848454612910565b825550505050565b600090565b6129c06129b3565b6129cb81848461298e565b505050565b5b818110156129ef576129e46000826129b8565b6001810190506129d1565b5050565b601f821115612a3457612a05816128de565b612a0e846128f3565b81016020851015612a1d578190505b612a31612a29856128f3565b8301826129d0565b50505b505050565b600082821c905092915050565b6000612a5760001984600802612a39565b1980831691505092915050565b6000612a708383612a46565b9150826002028217905092915050565b612a8982611a61565b67ffffffffffffffff811115612aa257612aa1611d2e565b5b612aac825461247d565b612ab78282856129f3565b600060209050601f831160018114612aea5760008415612ad8578287015190505b612ae28582612a64565b865550612b4a565b601f198416612af8866128de565b60005b82811015612b2057848901518255600182019150602085019450602081019050612afb565b86831015612b3d5784890151612b39601f891682612a46565b8355505b6001600288020188555050505b505050505050565b6000612b5d82611a61565b612b6781856124dd565b9350612b77818560208601611a7d565b612b8081611aa7565b840191505092915050565b6000606082019050612ba060008301866120db565b8181036020830152612bb28185612b52565b9050612bc16040830184612045565b949350505050565b7f50726f6a65637420646f6573206e6f7420657869737400000000000000000000600082015250565b6000612bff6016836124dd565b9150612c0a82612bc9565b602082019050919050565b60006020820190508181036000830152612c2e81612bf2565b9050919050565b7f50726f6a656374206973206e6f74206163746976650000000000000000000000600082015250565b6000612c6b6015836124dd565b9150612c7682612c35565b602082019050919050565b60006020820190508181036000830152612c9a81612c5e565b9050919050565b7f50726f6a6563742068617320656e646564000000000000000000000000000000600082015250565b6000612cd76011836124dd565b9150612ce282612ca1565b602082019050919050565b60006020820190508181036000830152612d0681612cca565b9050919050565b7f446f6e6174696f6e20616d6f756e74206d75737420626520677265617465722060008201527f7468616e207a65726f0000000000000000000000000000000000000000000000602082015250565b6000612d696029836124dd565b9150612d7482612d0d565b604082019050919050565b60006020820190508181036000830152612d9881612d5c565b9050919050565b7f446f6e6174696f6e2062656c6f77206d696e696d756d206c696d697400000000600082015250565b6000612dd5601c836124dd565b9150612de082612d9f565b602082019050919050565b60006020820190508181036000830152612e0481612dc8565b9050919050565b7f446f6e6174696f6e2065786365656473206d6178696d756d206c696d69740000600082015250565b6000612e41601e836124dd565b9150612e4c82612e0b565b602082019050919050565b60006020820190508181036000830152612e7081612e34565b9050919050565b6000612e82826119fe565b9150612e8d836119fe565b9250828201905080821115612ea557612ea461267e565b5b92915050565b600060ff82169050919050565b612ec181612eab565b8114612ecc57600080fd5b50565b600081519050612ede81612eb8565b92915050565b600060208284031215612efa57612ef96119f4565b5b6000612f0884828501612ecf565b91505092915050565b60008160011c9050919050565b6000808291508390505b6001851115612f6857808604811115612f4457612f4361267e565b5b6001851615612f535780820291505b8081029050612f6185612f11565b9450612f28565b94509492505050565b600082612f81576001905061303d565b81612f8f576000905061303d565b8160018114612fa55760028114612faf57612fde565b600191505061303d565b60ff841115612fc157612fc061267e565b5b8360020a915084821115612fd857612fd761267e565b5b5061303d565b5060208310610133831016604e8410600b84101617156130135782820a90508381111561300e5761300d61267e565b5b61303d565b6130208484846001612f1e565b925090508184048111156130375761303661267e565b5b81810290505b9392505050565b600061304f826119fe565b915061305a83612eab565b92506130877fffffffffffffffffffffffffffffffffffffffffffffffffffffffffffffffff8484612f71565b905092915050565b60006040820190506130a46000830185612045565b6130b160208301846120db565b9392505050565b7f4e657720656e642064617465206d75737420626520616674657220737461727460008201527f2064617465000000000000000000000000000000000000000000000000000000602082015250565b60006131146025836124dd565b915061311f826130b8565b604082019050919050565b6000602082019050818103600083015261314381613107565b9050919050565b7f43616e6e6f742075706461746520656e64206461746520666f7220696e61637460008201527f6976652070726f6a656374730000000000000000000000000000000000000000602082015250565b60006131a6602c836124dd565b91506131b18261314a565b604082019050919050565b600060208201905081810360008301526131d581613199565b9050919050565b60006040820190506131f160008301856120db565b6131fe60208301846120db565b939250505056fea2646970667358221220bc00a28418d77104f98b410317f9ef6cabe3c31ca69786e22ae568c6728ea8dd64736f6c634300081b0033",
  "linkReferences": {},
  "deployedLinkReferences": {}
}